:060000000C9449000C9471
:1000060000000C9400000C9400000C9400000C946A
:1000160000000C9400000C9400000C9400000C945A
:1000260000000C9400000C9400000C9400000C944A
:1000360000000C9400000C9400000C9400000C943A
:1000460000000C9400000C9400000C940000102793
:10005600E80364000A00010000100001100001001E
:10006600543A256420746F3A256420723A25640A4E
:1000760000543A256420746F3A256420723A256448
:10008600000080C00200600288000000F894EE279D
:10009600ECBBF1E0FBBFEBBFE5BF8DE0A2E0BB2709
:1000A600ED938A95E9F780E098E0A0E6ED93019755
:1000B600E9F7EAE8F0E085919591009761F0A5915E
:1000C600B59105901590BF01F00105900D9201972D
:1000D600E1F7FB01F0CFEFE5EDBFE8E0EEBFC0E6EC
:1000E600D2E00C948400AA93E881EFB9779907C00F
:1000F600919AA4E6B0E00E94A8039198F7CFEFB1D9
:1001060012C1A197ECE2E88300E036E12CE240E080
:1001160050E0E0E0EABBEBBBE0EBE7BBE0E0E8BBCE
:10012600E4BBE5BBE1BBE2BBE3BFE2BFECBFEFBDB7
:10013600EEBDEDBDECBDE7BDE6BDEBBDEABDE9BD7F
:10014600E8BDE2BDE5BDE4BDE3BDE9BFE5BFE4BF93
:10015600EAB9E0E8E8B9E0E0E0BFE6B9E0E5EDB924
:10016600E0E0EEB9E6BFA0E1B2D0B89AB99ABA9A81
:10017600C09AC19AC29A889A899A02E040E050E0F1
:100186008F9A979A9798A8ECB0E00E94A80310E07F
:10019600A22FA9DF1E2F69D0FE013196FA93EA93AA
:1001A600E6E6F0E0FA93EA93E22F0E9459030E94F2
:1001B6005F030E946603A12FBB27E4E0F0E00E94E4
:1001C600D2033097C1F410E0A02F8DDF1E2FFE0161
:1001D6003196FA93EA93E7E7F0E0FA93EA93E02F91
:1001E6000E9459030E945F030E946603311719F4A7
:1001F6000F5F4F5F5F4F909AA4E6B0E00E94A8039E
:100206009098979AA8ECB0E00E94A803BBCFFFCFC6
:10021600AA93E5B3EF70AE2FE881E07FEA2BE5BB4A
:100226008DE08A95F1F7AA9A8DE08A95F1F7AA985A
:100236008DE08A95F1F777C0AA93A881E9DFE88176
:10024600E295E883A881E4DF85E88A95F1F76BC03B
:10025600AA93E881F0E0E05AFD4FE081A981AE0F54
:10026600EBDF5980488022960895A2E00E946E0333
:10027600ACE0E2DFA1E00E946E03E0E04E2E5E2ECF
:100286000895AA93A881AA3011F0571448F0E0E027
:10029600EA934394A42DDCDFA881AA3009F443C075
:1002A6005394A89AA881C8DFA8983DC0BA93AA9388
:1002B6001A93A981BA81ED91A983BA831E2FE030E2
:1002C60019F0A12FDEDFF5CF188123960895AA93A2
:1002D600E4B3E06FE4BBA29AA09AA19AAA98A89860
:1002E600A9987880E881E058E0936202E881E054BA
:1002F600E0936302A4E1B0E00E94A8030E947403A5
:100306000E9474030E947403A0E282DF88EC90E0EE
:100316000197F1F7A8E290DFA4E08EDFA5E88CDF75
:10032600A6E08ADFA2DF21960895BA93AA931A93CC
:100336000A93AA81BB8112960E94E003309759F175
:10034600AA81BB8114960E94E0038F01309761F069
:100356000230E0E01E0798F0F80131978F01AA817C
:10036600BB811496ED93FC93AA81BB811296ED9105
:10037600FD913196FE93EE933197AC81A083AA81CD
:10038600BB810E94E003FF232AF0ED91FD91319697
:10039600FE93EE9306C0AA81BB81EFEFFFEFED93CC
:1003A600FC931981088125960895BA93AA932697F6
:1003B6000E94ED0310E0AC85BD85E0E0F0E0ED9332
:1003C600FC93EA89FB893196EA8BFB8B3197E491A2
:1003D6002E2FE03009F415C1E12FE03039F4253233
:1003E60011F411E002C00E947C030AC1E130A9F4B5
:1003F600253219F40E947C0302C112E040E000E0BD
:100406002D3211F401E0FCC02B3211F44BE2F8C09E
:10041600203211F440E2F4C002C0E23039F450E078
:1004260013E0203311F40068EBC003C0E33009F099
:10043600E7C0203310F02A3308F007C0AAE05A9F1D
:10044600502DE22FE0535E0FDBC0E22FE33649F476
:100456000E948303E889F989A481AA930E948903EB
:10046600CEC0E33741F40E9483030E948F030E94AB
:1004760040031E2F0AC0E03761F40E9483030E94E6
:100486008F030E944C031E2F086002600F7730E036
:1004960034C0E43611F0E93611F4046002C0E537E1
:1004A60031F4E4E5F0E0EE83FF8315E00CC0E835B7
:1004B60011F4086003C0E83709F0A1C0EEE5F0E0EA
:1004C600EE83FF8314E002FF14C00E9483030E94A0
:1004D6009903AB85AA233AF4EA85FB850E94B60305
:1004E600EA87FB874DE2403011F01F5F01C00B7FAA
:1004F60004C00E9483030E94990300FD11C01517D2
:1005060078F407FF08C002FF04C00B7F242F1150A8
:1005160001C020E301C020E20E947C035150EFCFCE
:10052600312F01FF17C03030A1F003FF06C0EE8166
:10053600FF812591EE83FF8305C0AE81BF812D919A
:10054600AE83BF830E947C03503009F05150315076
:10055600EACF4BC020E3EE81FF810E94E403E887E7
:10056600F987EE81FF813296EE83FF83E885F98570
:10057600AA85BB85AE17BF0750F02F5FA885B98542
:10058600EA85FB85EA1BFB0BEA87FB87EFCF2A335D
:1005960028F003FF02C0295F01C0295D04FD1AC0CF
:1005A600213320F4A885B985119709F409C053179A
:1005B60010F000FF01C013C020E207FF0BC020E3CC
:1005C600006102FF07C00B7F4A930E9489035030E7
:1005D60009F051500E947C03503009F051503150BF
:1005E600A885B985129708F0B5CF00FF08C050302E
:1005F60031F05150E0E2EA930E948903F8CF10E00F
:10060600E0CEAC85BD850E94E0030E94F4036496AB
:100616000895FF92F82E26970E94EF030E94A103E9
:10062600309719F4EFEFFFEF23C0DE0116960E9414
:10063600B2038D010E94A103EE83FF83E0E0E88709
:10064600E987DE011A960E94B2030E94E003FA933C
:10065600EA931A930A93E8E9F1E0FA93EA93DE0142
:100666001A96A3DE9F01AE81BF81E0E0EC93F9010B
:100676000E94F6032A96FF900895BA93AA93A99129
:10068600B991EE27FF276D91662311F03196FBCFC6
:100696000895BA93AA93AA27BB27E991F9910590E1
:1006A600002011F01196FBCFFD010895FF27662764
:1006B60077270E94E8030895FA010E94BA030E9470
:1006C600E803E12FF3CF8CE00E940C036096DE0175
:1006D60011960C9459010E941F01A3E0B0E00C94FE
:1006E600A803A0E30E940B0188EC90E00197F1F7C4
:1006F60008952A93AD85BE85EF85F88909950895F5
:10070600E889F9893497E88BF98B0895AD85BE851C
:10071600EF85F88909950895A889B98914960E94E4
:10072600E003EE83FF83AE81BF810895A889B9896E
:1007360014960E94E003EA87FB870895DE011C9663
:100746000E94B2030E94E0030895109639F080EDEE
:1007560097E00197F1F7A8951197C9F70895002436
:10076600AF0DB01D0895F195E195F04008956F2FF6
:10077600660F660B762F08950024112490E1AA0FC8
:10078600BB1F001C111C0E1A1F0A18F40E0E1F1E8A
:1007960001C0A1609A9599F7FD01D0010895E894EA
:1007A600B7FF04C0A095B09511966894F7FDDBDFFE
:1007B600E3DFFD010EF4D7DF0895ED91FC9111976B
:1007C60008950590F491E02D08957A936A93FA932B
:1007D600EA9308955A934A933A932A931A930A935B
:1007E60008955D814C813B812A8119810881089594
:00000001FF
