:060000000C9450000C946A
:1000060000000C9400000C9400000C9400000C946A
:1000160000000C9400000C9484000C9400000C94D6
:1000260000000C9400000C9400000C94AC000C949E
:1000360000000C9400000C9400000C9400000C943A
:1000460000000C9400000C9400000C940000102793
:10005600E80364000A00010000100001100001001E
:100066000100000000002C16000074656D703D252F
:10007600642073706565643D256420646174613D28
:100086002564202020202020200080C00A000400B3
:1000960066000200810290000000F894EE27ECBB97
:1000A600F1E0FBBFEBBFE5BF8DE0A2E0BB27ED9320
:1000B6008A95E9F780E098E0A0E6ED930197E9F7E5
:1000C600E2E9F0E085919591009761F0A591B591EF
:1000D60005901590BF01F00105900D920197E1F78B
:1000E600FB01F0CFEFE5EDBFE8E0EEBFC0E6D2E002
:1000F6000C94DD00C398A2E3B0E00E94E703AFB81A
:1001060008950E949F03F40131964F01E8EEF3E053
:10011600E815F90519F488249924ECDF3DC0BA9353
:10012600AA93A881B981599724F0E6E0F0E00C94EF
:100136001603E881F9810E94E3040E945704A0E0B7
:10014600B0E080E89EE30E9485040E9420040C949F
:1001560016030E949F03EFB1E09380020C2C0D283A
:10016600A1F4609080027724E03071F0E1E0F0E0E5
:100176006F01A0918002BB27D2DF2F01C398A8ECA4
:10018600B0E00E94E7034FB807C0CC24DD24A0915D
:100196008002BA1609F4C39AE991EFBFF991E99181
:1001A600B991A9919991899179916991F99019904B
:1001B60009901895E0E0EABBEBBBE0EBE7BBE0E0BB
:1001C600E8BBE4BBE5BBE1BBE2BBE3BFE2BFECBF20
:1001D600EFBDE9E0EEBDE0E0EDBDECBDE7BDE6BD9F
:1001E600EFE1EBBDEFE3EABDE0E0E9BDE8BDE2BD6E
:1001F600E5BDE4BDE3BDE0E1E9BFE0E0E5BFE4BFA6
:10020600EAB9E0E8E8B9E0E0E0BFE6B9E1EDEDB96A
:10021600E0E0EEB9EEB1EFB1E0E0E6BFA0E10E94AA
:1002260057037894BB9AC39AE0E0EA93A0E00E9451
:100236000703E0E6F2E0FA93EA93E0E7F0E0FA93E8
:10024600EA93F3010E94E3040E94F004F2010E9483
:10025600E3040E94F004E0918002FF2766277727D7
:100266000E94F0048CE00E94B3026096A0E6B2E021
:100276000E944603D9CFFFCFBA93AA931A930A9343
:10028600AA81BB8112960E94E804309759F1AA818F
:10029600BB8114960E94E8048F01309761F002300A
:1002A600E0E01E0798F0F80131978F01AA81BB8123
:1002B6001496ED93FC93AA81BB811296ED91FD9164
:1002C6003196FE93EE933197AC81A083AA81BB81D0
:1002D6000E94E804FF232AF0ED91FD913196FE93EA
:1002E600EE9306C0AA81BB81EFEFFFEFED93FC937F
:1002F6001981088125960895BA93AA9326970E9494
:10030600F50410E0AC85BD85E0E0F0E0ED93FC93EC
:10031600EA89FB893196EA8BFB8B3197E4912E2F84
:10032600E03009F415C1E12FE03039F4253211F43B
:1003360011E002C00E94AD030AC1E130A9F42532E2
:1003460019F40E94AD0302C112E040E000E02D3234
:1003560011F401E0FCC02B3211F44BE2F8C020325C
:1003660011F440E2F4C002C0E23039F450E013E088
:10037600203311F40068EBC003C0E33009F0E7C096
:10038600203310F02A3308F007C0AAE05A9F502DF8
:10039600E22FE0535E0FDBC0E22FE33649F40E9402
:1003A600B403E889F989A481AA930E94BA03CEC04E
:1003B600E33741F40E94B4030E94C0030E948603FF
:1003C6001E2F0AC0E03761F40E94B4030E94C003E6
:1003D6000E9492031E2F086002600F7730E034C03F
:1003E600E43611F0E93611F4046002C0E53731F461
:1003F600E4E5F0E0EE83FF8315E00CC0E83511F488
:10040600086003C0E83709F0A1C0EEE5F0E0EE832E
:10041600FF8314E002FF14C00E94B4030E94CA03C3
:10042600AB85AA233AF4EA85FB850E94D704EA87BE
:10043600FB874DE2403011F01F5F01C00B7F04C007
:100446000E94B4030E94CA0300FD11C0151778F478
:1004560007FF08C002FF04C00B7F242F115001C004
:1004660020E301C020E20E94AD035150EFCF312FAF
:1004760001FF17C03030A1F003FF06C0EE81FF81F7
:100486002591EE83FF8305C0AE81BF812D91AE839A
:10049600BF830E94AD03503009F051503150EACF6E
:1004A6004BC020E3EE81FF810E94EC04E887F987C8
:1004B600EE81FF813296EE83FF83E885F985AA8572
:1004C600BB85AE17BF0750F02F5FA885B985EA85B3
:1004D600FB85EA1BFB0BEA87FB87EFCF2A3328F065
:1004E60003FF02C0295F01C0295D04FD1AC0213344
:1004F60020F4A885B985119709F409C0531710F09F
:1005060000FF01C013C020E207FF0BC020E300611B
:1005160002FF07C00B7F4A930E94BA03503009F0CE
:1005260051500E94AD03503009F051503150A8850A
:10053600B985129708F0B5CF00FF08C0503031F0EA
:100546005150E0E2EA930E94BA03F8CF10E0E0CE01
:10055600AC85BD850E94E8040E94FC04649608955B
:10056600FF92F82E26970E94F7040E94D203309736
:1005760019F4EFEFFFEF23C0DE0116960E94D304B5
:100586008D010E94D203EE83FF83E0E0E887E987CE
:10059600DE011A960E94D3040E94E804FA93EA93B5
:1005A6001A930A93EFE3F1E0FA93EA93DE011A96BF
:1005B600A3DE9F01AE81BF81E0E0EC93F9010E94CA
:1005C600FE042A96FF900895AA93E5B3EF70AE2F26
:1005D600E881E07FEA2BE5BB8DE08A95F1F7AA9AE0
:1005E6008DE08A95F1F7AA988DE08A95F1F789C092
:1005F600AA93A881E9DFE881E295E883A881E4DF90
:1006060085E88A95F1F77DC0AA93E881F0E0EF5777
:10061600FD4FE081A981AE0FEBDFE981E093850212
:10062600E881E093860222960895A2E00E94D9030B
:10063600ACE0DEDFA1E00E94D903E0E0E0938602B1
:10064600E09385020895AA93A881AA3031F0E0913B
:100656008702A0918502AE1760F0E0E0EA93A091D0
:100666008602AF5FA0938602CFDFA881AA3009F485
:1006760048C0E0918502EF5FE0938502A89AA881C1
:10068600B7DFA8983EC0BA93AA931A93A981BA81F4
:10069600ED91A983BA831E2FE03019F0A12FD3DF85
:1006A600F5CF188123960895AA93E4B3E06FE4BBCF
:1006B600A29AA09AA19AAA98A898A998E881E093E4
:1006C6008702E058E0938302E881E054E0938402D5
:1006D600A4E1B0E00E94E7030E94DF030E94DF036B
:1006E6000E94DF03A0E270DF88EC90E00197F1F74B
:1006F600A8E27EDFA4E07CDFA5E87ADFA6E078DF6B
:1007060094DF21960895BA93AA93A991B991EE27F9
:10071600FF276D91662311F03196FBCF0895BA93AA
:10072600AA93AA27BB27E991F9910590002011F019
:100736001196FBCFFD0108950A921A92FA926A93D6
:100746007A938A939A93AA93BA93EA93FA93EFB712
:10075600EA9308952A93AD85BE85EF85F8890995B4
:100766000895E889F9893497E88BF98B0895AD8562
:10077600BE85EF85F88909950895A889B9891496E3
:100786000E94E804EE83FF83AE81BF810895A889A5
:10079600B98914960E94E804EA87FB870895DE016A
:1007A6001C960E94D3040E94E80408950E94FB024E
:1007B600A3E0B0E00C94E703A0E30E94E70288EC14
:1007C60090E00197F1F70895109639F080ED97E0E3
:1007D6000197F1F7A8951197C9F70895552342F4A3
:1007E600503811F4E0FF04C03196691F791F6BF091
:1007F60050E8572711F45F9373C05F3F31F0660FDF
:10080600000C57956795752F08955F9300200AF0A1
:1008160073C06CC050E8192E1522880F991F9527B2
:10082600550F879550E8072E0522660F771F752707
:10083600550F67950895689401C0E8945F93F2DFB9
:10084600703818F07F3F08F44BC056E1571BAAF4E6
:10085600519558300EF4593030F0EFEFFFEF6FEF4F
:100866007FE777F91AC077275523B9F0EE0FFF1FF8
:10087600661F771F5A95D1F710C07727583028F092
:10088600EF2FF62F672F5850F9CF552331F0769575
:100896006795F795E7955A95D1F700200AF488D021
:1008A6005F910895689401C0E89430976040704065
:1008B600B1F0002426F0772312F4009479D0172E95
:1008C6007EE1112032F07A95EE0FFF1F661F111C94
:1008D600F9CFEF2FF62F612D5F938ADF5F91089591
:1008E600EE27FF27662777275F910895EFEFFFEF43
:1008F6006FE77FEF5F910895EFEFFFEF6FE77FE719
:100906005F9108955F9386DF703851F3903841F315
:1009160001240894791F23F41CF300203AF3ECCF4A
:100926000F921F932F933F934F93112722279927B7
:10093600689FA0018F9F302D410D591F6B9F300D71
:10094600411D591F8E9F27D0BF9F25D06A9F23D058
:10095600BE9F1DD0AF9F1BD0AE9F110D291F391F03
:10096600491F591FE32FF42F652F522F4F913F91A7
:100976002F911F910F9066232AF0550FEE1FFF1F30
:10098600661F02C073954BF229DF5F910895100D23
:10099600211D391F02C0200D311D491F591F089501
:1009A6000024AF0DB01D0895F195E195F04008952E
:1009B600F09560957095E195FF4F6F4F7F4F0895C5
:1009C6006F2F660F660B762F0895ED91FC911197A8
:1009D60008950590F491E02D08957A936A93FA9319
:1009E600EA9308955A934A933A932A931A930A9349
:1009F60008955D814C813B812A8119810881089582
:00000001FF
