:0C0000000C9448000C9400000C940000CC
:10000C000C9400000C9400000C9400000C94000064
:10001C000C9400000C9400000C9400000C94000054
:10002C000C9400000C9400000C9400000C94000044
:10003C000C9400000C9400000C9400000C94000034
:10004C000C9400000C9400001027E80364000A00D4
:10005C00010000100001100001004D617374657205
:10006C005472616E736D697420256420746F202541
:10007C00642041636B3A2564000080C0020060027A
:10008C0086000000F894EE27ECBBF1E0FBBFEBBF61
:10009C00E5BF8DE0A2E0BB27ED938A95E9F780E000
:1000AC0098E0A0E6ED930197E9F7E8E8F0E0859198
:1000BC009591009761F0A591B59105901590BF01B0
:1000CC00F00105900D920197E1F7FB01F0CFEFE500
:1000DC00EDBFE8E0EEBFC0E6D2E00C948300AA933B
:1000EC00E881EFB9779907C0919AA4E6B0E00E9435
:1000FC00AC039198F7CFEFB12CC1A09700E036E19B
:10010C0040E050E0E0E0EABBEBBBE0EBE7BBE0E05B
:10011C00E8BBE4BBE5BBE1BBE2BBE3BFE2BFECBFCA
:10012C00EFBDEEBDEDBDECBDE7BDE6BDEBBDEABD83
:10013C00E9BDE8BDE2BDE5BDE4BDE3BDE9BFE5BF9A
:10014C00E4BFEAB9E0E8E8B9E0E0E0BFE6B9E0E531
:10015C00EDB9E0E0EEB9E6BFA0E1CFD0B89AB99A1C
:10016C00BA9AC09AC19AC29A889A899A02E040E0D7
:10017C0050E0B89AC09A042E052A11F4C0980DC00C
:10018C00E1E0F0E0E417F50711F4C19806C0E2E0F5
:10019C00F0E0E417F50709F4C298A8ECB0E00E946F
:1001AC00AC0310E0A02F9BDF1E2F75D0FE01FA933D
:1001BC00EA93E6E6F0E0FA93EA93E02FFF2766274E
:1001CC0077270E94CB03FA010E94BE030E94CB0347
:1001DC00E12FFF27662777270E94CB038CE00E9434
:1001EC0025036096DE0178D0909AA4E6B0E00E94D8
:1001FC00AC039098042E052A11F4C09A0DC0E1E0CE
:10020C00F0E0E417F50711F4C19A06C0E2E0F0E063
:10021C00E417F50709F4C29A311719F40F5F4F5F11
:10022C005F4FE3E0F0E0E417F50711F440E050E035
:10023C00A8ECB0E00E94AC039ECFFFCFAA93EBB327
:10024C00EF70AE2FE881E07FEA2BEBBB8DE08A9557
:10025C00F1F7DA9A8DE08A95F1F7DA988DE08A95C4
:10026C00F1F777C0AA93A881E9DFE881E295E883EA
:10027C00A881E4DF85E88A95F1F76BC0AA93E88141
:10028C00F0E0E05AFD4FE081A981AE0FEBDF598021
:10029C00488022960895A2E00E947203ACE0E2DF4F
:1002AC00A1E00E947203E0E04E2E5E2E0895AA9308
:1002BC00A881AA3011F0571448F0E0E0EA93439477
:1002CC00A42DDCDFA881AA3009F443C05394D89A3A
:1002DC00A881C8DFD8983DC0BA93AA931A93A98174
:1002EC00BA81ED91A983BA831E2FE03019F0A12FAA
:1002FC00DEDFF5CF188123960895AA93EAB3E06F59
:10030C00EABBD29AD09AD19ADA98D898D9987880B0
:10031C00E881E058E0936202E881E054E0936302E4
:10032C00A4E1B0E00E94AC030E9478030E94780321
:10033C000E947803A0E282DF88EC90E00197F1F74D
:10034C00A8E290DFA4E08EDFA5E88CDFA6E08ADFD0
:10035C00A2DF21960895BA93AA931A930A93AA81BD
:10036C00BB8112960E94C303309759F1AA81BB81BD
:10037C0014960E94C3038F01309761F00230E0E0C5
:10038C001E0798F0F80131978F01AA81BB81149652
:10039C00ED93FC93AA81BB811296ED91FD91319660
:1003AC00FE93EE933197AC81A083AA81BB810E940E
:1003BC00C303FF232AF0ED91FD913196FE93EE934A
:1003CC0006C0AA81BB81EFEFFFEFED93FC9319817F
:1003DC00088125960895BA93AA9326970E94D00374
:1003EC0010E0AC85BD85E0E0F0E0ED93FC93EA898C
:1003FC00FB893196EA8BFB8B3197E4912E2FE03001
:10040C0009F415C1E12FE03039F4253211F411E073
:10041C0002C00E9480030AC1E130A9F4253219F40C
:10042C000E94800302C112E040E000E02D3211F482
:10043C0001E0FCC02B3211F44BE2F8C0203211F475
:10044C0040E2F4C002C0E23039F450E013E0203353
:10045C0011F40068EBC003C0E33009F0E7C02033AF
:10046C0010F02A3308F007C0AAE05A9F502DE22F53
:10047C00E0535E0FDBC0E22FE33649F40E948703A2
:10048C00E889F989A481AA930E948D03CEC0E33731
:10049C0041F40E9487030E9493030E9459031E2F6C
:1004AC000AC0E03761F40E9487030E9493030E9404
:1004BC0065031E2F086002600F7730E034C0E4360D
:1004CC0011F0E93611F4046002C0E53731F4E4E5CB
:1004DC00F0E0EE83FF8315E00CC0E83511F4086002
:1004EC0003C0E83709F0A1C0EEE5F0E0EE83FF832E
:1004FC0014E002FF14C00E9487030E949D03AB8589
:10050C00AA233AF4EA85FB850E94BA03EA87FB87A3
:10051C004DE2403011F01F5F01C00B7F04C00E9400
:10052C0087030E949D0300FD11C0151778F407FF87
:10053C0008C002FF04C00B7F242F115001C020E320
:10054C0001C020E20E9480035150EFCF312F01FFF8
:10055C0017C03030A1F003FF06C0EE81FF8125915A
:10056C00EE83FF8305C0AE81BF812D91AE83BF8327
:10057C000E948003503009F051503150EACF4BC0EB
:10058C0020E3EE81FF810E94C703E887F987EE81A3
:10059C00FF813296EE83FF83E885F985AA85BB85BA
:1005AC00AE17BF0750F02F5FA885B985EA85FB858C
:1005BC00EA1BFB0BEA87FB87EFCF2A3328F003FFFC
:1005CC0002C0295F01C0295D04FD1AC0213320F44B
:1005DC00A885B985119709F409C0531710F000FFCD
:1005EC0001C013C020E207FF0BC020E3006102FF33
:1005FC0007C00B7F4A930E948D03503009F0515075
:10060C000E948003503009F051503150A885B985B3
:10061C00129708F0B5CF00FF08C0503031F05150A0
:10062C00E0E2EA930E948D03F8CF10E0E0CEAC85B7
:10063C00BD850E94C3030E94D70364960895FF9260
:10064C00F82E26970E94D2030E94A503309719F426
:10065C00EFEFFFEF23C0DE0116960E94B6038D016B
:10066C000E94A503EE83FF83E0E0E887E987DE01C3
:10067C001A960E94B6030E94C303FA93EA931A9344
:10068C000A93E1EBF1E0FA93EA93DE011A96A3DE0A
:10069C009F01AE81BF81E0E0EC93F9010E94D90388
:1006AC002A96FF900895BA93AA93A991B991EE272F
:1006BC00FF276D91662311F03196FBCF0895BA9305
:1006CC00AA93AA27BB27E991F9910590002011F074
:1006DC001196FBCFFD0108950E943801A3E0B0E014
:1006EC000C94AC03A0E30E94240188EC90E00197E9
:1006FC00F1F708952A93AD85BE85EF85F8890995A4
:10070C000895E889F9893497E88BF98B0895AD85BC
:10071C00BE85EF85F88909950895A889B98914963D
:10072C000E94C303EE83FF83AE81BF810895A88925
:10073C00B98914960E94C303EA87FB870895DE01EA
:10074C001C960E94B6030E94C3030895109639F0BC
:10075C0080ED97E00197F1F7A8951197C9F70895E7
:10076C000024AF0DB01D0895F195E195F04008956A
:10077C006F2F660F660B762F0895ED91FC911197F4
:10078C0008950590F491E02D08957A936A93FA9365
:10079C00EA9308955A934A933A932A931A930A9395
:1007AC0008955D814C813B812A81198108810895CE
:00000001FF
