:060000000C9444000C9476
:1000060000000C9400000C9400000C9400000C946A
:1000160000000C9400000C9400000C9400000C945A
:1000260000000C9400000C9400000C9400000C944A
:1000360000000C9400000C9400000C9400000C943A
:1000460000000C9400000C9400000C940000102793
:10005600E80364000A00010000100001100001001E
:10006600743D256420723D25640A0074743D256440
:100076002072723D2564000080C0020060027E008E
:100086000000F894EE27ECBBF1E0FBBFEBBFE5BF49
:100096008DE0A2E0BB27ED938A95E9F780E098E032
:1000A600A0E6ED930197E9F7E0E8F0E085919591F8
:1000B600009761F0A591B59105901590BF01F001EB
:1000C60005900D920197E1F7FB01F0CFEFE5EDBF4B
:1000D600E8E0EEBFC0E6D2E00C947F00AA93E88188
:1000E600EFB9779907C0919AACE2B1E00E948D030F
:1000F6009198F7CFEFB104C1A09736E12CE2E0E08A
:10010600EABBEBBBE0E4E7BBE0E0E8BBE4BBE5BB96
:10011600E1BBE2BBE3BFE2BFECBFEFBDEEBDEDBDB1
:10012600ECBDE7BDE6BDEBBDEABDE9BDE8BDE2BDA0
:10013600E5BDE4BDE3BDE9BFE5BFE4BFEAB9E0E87C
:10014600E8B9E0E0E0BFE6B9E0E4EDB9E0E0EEB939
:10015600E6BFA0E1A9D0889A899A10E001E0A4EF51
:10016600B1E00E948D0310E0A02FB8DF1E2F6AD0E9
:10017600FE01FA93EA93E6E6F0E0FA93EA93E02FBB
:100186000E944603E12F0E9446030E944C0321175A
:1001960001F5A02FBB27E4E0F0E00E94B203309700
:1001A600B9F4A8ECB0E00E948D0310E0A32F96DF0F
:1001B6001E2FFE01FA93EA93E1E7F0E0FA93EA9341
:1001C600E32F0E944603E12F0E9446030E944C0340
:1001D6000F5F909AA4E6B0E00E948D039098A4EF7A
:1001E600B1E00E948D03BBCFFFCFAA93EBB3EF70B4
:1001F600AE2FE881E07FEA2BEBBB8DE08A95F1F725
:10020600DA9A8DE08A95F1F7DA988DE08A95F1F71A
:1002160077C0AA93A881E9DFE881E295E883A881FF
:10022600E4DF85E88A95F1F76BC0AA93E881F0E0F0
:10023600E05AFD4FE081A981AE0FEBDF598048807F
:1002460022960895A2E00E945303ACE0E2DFA1E00B
:100256000E945303E0E04E2E5E2E0895AA93A881D5
:10026600AA3011F0571448F0E0E0EA934394A42D25
:10027600DCDFA881AA3009F443C05394D89AA88138
:10028600C8DFD8983DC0BA93AA931A93A981BA81B8
:10029600ED91A983BA831E2FE03019F0A12FDEDF7E
:1002A600F5CF188123960895AA93EAB3E06FEABBC7
:1002B600D29AD09AD19ADA98D898D9987880E88143
:1002C600E058E0936202E881E054E0936302A4E11F
:1002D600B0E00E948D030E9459030E9459030E94B8
:1002E6005903A0E282DF88EC90E00197F1F7A8E2DB
:1002F60090DFA4E08EDFA5E88CDFA6E08ADFA2DF30
:1003060021960895BA93AA931A930A93AA81BB8158
:1003160012960E94C003309759F1AA81BB811496A8
:100326000E94C0038F01309761F00230E0E01E07A3
:1003360098F0F80131978F01AA81BB811496ED934D
:10034600FC93AA81BB811296ED91FD913196FE93A5
:10035600EE933197AC81A083AA81BB810E94C00332
:10036600FF232AF0ED91FD913196FE93EE9306C0A0
:10037600AA81BB81EFEFFFEFED93FC931981088112
:1003860025960895BA93AA9326970E94CD0310E066
:10039600AC85BD85E0E0F0E0ED93FC93EA89FB894E
:1003A6003196EA8BFB8B3197E4912E2FE03009F4DE
:1003B60015C1E12FE03039F4253211F411E002C005
:1003C6000E9461030AC1E130A9F4253219F40E94A2
:1003D600610302C112E040E000E02D3211F401E0B9
:1003E600FCC02B3211F44BE2F8C0203211F440E28B
:1003F600F4C002C0E23039F450E013E0203311F4C7
:100406000068EBC003C0E33009F0E7C0203310F00A
:100416002A3308F007C0AAE05A9F502DE22FE05376
:100426005E0FDBC0E22FE33649F40E946803E889D9
:10043600F989A481AA930E946E03CEC0E33741F4E2
:100446000E9468030E9474030E942D031E2F0AC097
:10045600E03761F40E9468030E9474030E94390326
:100466001E2F086002600F7730E034C0E43611F0CA
:10047600E93611F4046002C0E53731F4E4E5F0E052
:10048600EE83FF8315E00CC0E83511F4086003C065
:10049600E83709F0A1C0EEE5F0E0EE83FF8314E053
:1004A60002FF14C00E9468030E947E03AB85AA2344
:1004B6003AF4EA85FB850E949B03EA87FB874DE2B7
:1004C600403011F01F5F01C00B7F04C00E9468031B
:1004D6000E947E0300FD11C0151778F407FF08C0BF
:1004E60002FF04C00B7F242F115001C020E301C07E
:1004F60020E20E9461035150EFCF312F01FF17C058
:100506003030A1F003FF06C0EE81FF812591EE8316
:10051600FF8305C0AE81BF812D91AE83BF830E944C
:100526006103503009F051503150EACF4BC020E3FF
:10053600EE81FF810E94C403E887F987EE81FF817F
:100546003296EE83FF83E885F985AA85BB85AE17CB
:10055600BF0750F02F5FA885B985EA85FB85EA1BA2
:10056600FB0BEA87FB87EFCF2A3328F003FF02C095
:10057600295F01C0295D04FD1AC0213320F4A88536
:10058600B985119709F409C0531710F000FF01C08F
:1005960013C020E207FF0BC020E3006102FF07C083
:1005A6000B7F4A930E946E03503009F051500E940F
:1005B6006103503009F051503150A885B985129722
:1005C60008F0B5CF00FF08C0503031F05150E0E2DE
:1005D600EA930E946E03F8CF10E0E0CEAC85BD85AD
:1005E6000E94C0030E94D40364960895FF92F82ED9
:1005F60026970E94CF030E948603309719F4EFEFE7
:10060600FFEF23C0DE0116960E9497038D010E941C
:100616008603EE83FF83E0E0E887E987DE011A962A
:100626000E9497030E94C003FA93EA931A930A93CF
:10063600E5E8F1E0FA93EA93DE011A96A3DE9F015C
:10064600AE81BF81E0E0EC93F9010E94D6032A96C1
:10065600FF900895BA93AA93A991B991EE27FF271F
:100666006D91662311F03196FBCF0895BA93AA9344
:10067600AA27BB27E991F9910590002011F0119660
:10068600FBCFFD010895FF27662777270E94C80341
:10069600089588E00E94F9022C96DE010C9446012A
:1006A6000E940C01A3E0B0E00C948D03A0E30E942D
:1006B600F80088EC90E00197F1F708952A93AD854C
:1006C600BE85EF85F88909950895E889F9893497F3
:1006D600E88BF98B0895AD85BE85EF85F889099578
:1006E6000895A889B98914960E94C003EE83FF83F2
:1006F600AE81BF810895A889B98914960E94C00366
:10070600EA87FB870895DE011C960E9497030E94E4
:10071600C0030895109639F080ED97E00197F1F740
:10072600A8951197C9F708950024AF0DB01D089537
:10073600F195E195F04008950024112490E1AA0F67
:10074600BB1F001C111C0E1A1F0A18F40E0E1F1ECA
:1007560001C0A1609A9599F7FD01D0010895E8942A
:10076600B7FF04C0A095B09511966894F7FDE0DF39
:10077600E3DFFD010EF4DCDF0895ED91FC911197A6
:1007860008950590F491E02D08957A936A93FA936B
:10079600EA9308955A934A933A932A931A930A939B
:1007A60008955D814C813B812A81198108810895D4
:00000001FF
