:0E0000000C944D000C9400000C9400000C9425
:10000E0000000C9400000C9400000C9400000C9462
:10001E0000000C9400000C9400000C948B000C94C7
:10002E0000000C9400000C9400000C9400000C9442
:10003E0000000C9400000C9400000C94A3000C948F
:10004E0000000C9400001027E80364000A00010071
:10005E0000100001100001000000000000007431CB
:10006E003D25642074323D2025640A20733D2564AD
:10007E0020666C61673D25642020000080C006006C
:10008E0004006600020060028A000000F894EE2769
:10009E00ECBBF1E0FBBFEBBFE5BF8DE0A2E0BB2701
:1000AE00ED938A95E9F780E098E0A0E6ED9301974D
:1000BE00E9F7ECE8F0E085919591009761F0A59154
:1000CE00B59105901590BF01F00105900D92019725
:1000DE00E1F7FB01F0CFEFE5EDBFE8E0EEBFC0E6E4
:1000EE00D2E00C94D700A0E04ED02F010E948E03D8
:1000FE002F01A8ECB0E00E94FE03A3E044D03F0124
:10010E000E948E033F0108950E94B103F5013196BE
:10011E005F01E8EEF3E0EA15FB0569F4AA24BB24BF
:10012E00F60131966F01E5E0F0E0EC15FD0519F4EE
:10013E00DADFCC24DD2419C00E94B103979A082C73
:10014E00092859F4E1E0F0E04F01AA24BB24CC24A5
:10015E00DD24C9DFEBE0E3BF08C0E8E0E3BF88249D
:10016E009924AA24BB24CC24DD24E991EFBFF99174
:10017E00E991B991A9919991899179916991F990A2
:10018E00199009901895AA93E881E7B98BE18A95A1
:10019E00F1F7369A349BFECF349AE4B1F5B1F4C040
:1001AE00A097E0E0EABBEBBBE7BBE8BBE4BBE5BB7B
:1001BE00E1BBE2BBE8E0E3BFE0E0E2BFECE7ECBFAF
:1001CE00E0E0EFBDEEBDEDBDECBDE7BDE6BDEBBDC8
:1001DE00EABDE9BDE8BDE2BDE5BDE4BDE3BDE2E0DB
:1001EE00E9BFE0E0E5BFE4BFEAB9E8E0E8B9E0E086
:1001FE00E7B9E4E8E6B9E0E0E0BFEDB9E6BFA0E1BB
:10020E0096D078948F9A9798FE01FA93EA93ECE63B
:10021E00F0E0FA93EA93F2010E94BF03F3010E9409
:10022E00BF03F6010E94BF03F4010E94BF0380E1E9
:10023E000E9441036496E0E0EA93A0E028D0DE013C
:10024E0065D0A4EFB1E00E94FE03DECFFFCFAA93EC
:10025E00E5B3EF70AE2FE881E07FEA2BE5BB8DE0D2
:10026E008A95F1F7AA9A8DE08A95F1F7AA988DE012
:10027E008A95F1F789C0AA93A881E9DFE881E29512
:10028E00E883A881E4DF85E88A95F1F77DC0AA931B
:10029E00E881F0E0E05AFD4FE081A981AE0FEBDF7F
:1002AE00E981E0936402E881E09365022296089565
:1002BE00A2E00E94C403ACE0DEDFA1E00E94C40312
:1002CE00E0E0E0936502E09364020895AA93A881AA
:1002DE00AA3031F0E0916602A0916402AE1760F090
:1002EE00E0E0EA93A0916502AF5FA0936502CFDFD5
:1002FE00A881AA3009F448C0E0916402EF5FE09350
:10030E006402A89AA881B7DFA8983EC0BA93AA93B0
:10031E001A93A981BA81ED91A983BA831E2FE03079
:10032E0019F0A12FD3DFF5CF188123960895AA9344
:10033E00E4B3E06FE4BBA29AA09AA19AAA98A898F7
:10034E00A998E881E0936602E058E0936202E881A2
:10035E00E054E0936302A4E1B0E00E94FE030E9429
:10036E00CA030E94CA030E94CA03A0E270DF88EC8F
:10037E0090E00197F1F7A8E27EDFA4E07CDFA5E82C
:10038E007ADFA6E078DF94DF21960895BA93AA93D8
:10039E001A930A93AA81BB8112960E944405309744
:1003AE0059F1AA81BB8114960E9444058F013097A2
:1003BE0061F00230E0E01E0798F0F80131978F01EE
:1003CE00AA81BB811496ED93FC93AA81BB811296F0
:1003DE00ED91FD913196FE93EE933197AC81A08312
:1003EE00AA81BB810E944405FF232AF0ED91FD9165
:1003FE003196FE93EE9306C0AA81BB81EFEFFFEF1D
:10040E00ED93FC931981088125960895BA93AA93CA
:10041E0026970E94510510E0AC85BD85E0E0F0E026
:10042E00ED93FC93EA89FB893196EA8BFB8B31972E
:10043E00E4912E2FE03009F415C1E12FE03039F4AC
:10044E00253211F411E002C00E94D2030AC1E1303C
:10045E00A9F4253219F40E94D20302C112E040E041
:10046E0000E02D3211F401E0FCC02B3211F44BE20E
:10047E00F8C0203211F440E2F4C002C0E23039F488
:10048E0050E013E0203311F40068EBC003C0E330FA
:10049E0009F0E7C0203310F02A3308F007C0AAE0B5
:1004AE005A9F502DE22FE0535E0FDBC0E22FE33652
:1004BE0049F40E94D903E889F989A481AA930E947C
:1004CE00DF03CEC0E33741F40E94D9030E94E50357
:1004DE000E9475031E2F0AC0E03761F40E94D903F3
:1004EE000E94E5030E9481031E2F086002600F77B1
:1004FE0030E034C0E43611F0E93611F4046002C085
:10050E00E53731F4E4E5F0E0EE83FF8315E00CC04F
:10051E00E83511F4086003C0E83709F0A1C0EEE534
:10052E00F0E0EE83FF8314E002FF14C00E94D903B3
:10053E000E94EF03AB85AA233AF4EA85FB850E945D
:10054E003305EA87FB874DE2403011F01F5F01C093
:10055E000B7F04C00E94D9030E94EF0300FD11C05F
:10056E00151778F407FF08C002FF04C00B7F242F75
:10057E00115001C020E301C020E20E94D20351506D
:10058E00EFCF312F01FF17C03030A1F003FF06C0AF
:10059E00EE81FF812591EE83FF8305C0AE81BF8181
:1005AE002D91AE83BF830E94D203503009F051507B
:1005BE003150EACF4BC020E3EE81FF810E94480507
:1005CE00E887F987EE81FF813296EE83FF83E88517
:1005DE00F985AA85BB85AE17BF0750F02F5FA8859A
:1005EE00B985EA85FB85EA1BFB0BEA87FB87EFCF14
:1005FE002A3328F003FF02C0295F01C0295D04FDE4
:10060E001AC0213320F4A885B985119709F409C0C1
:10061E00531710F000FF01C013C020E207FF0BC0FC
:10062E0020E3006102FF07C00B7F4A930E94DF03A5
:10063E00503009F051500E94D203503009F0515001
:10064E003150A885B985129708F0B5CF00FF08C0C4
:10065E00503031F05150E0E2EA930E94DF03F8CFC0
:10066E0010E0E0CEAC85BD850E9444050E94580581
:10067E0064960895FF92F82E26970E9453050E94C5
:10068E00F703309719F4EFEFFFEF23C0DE01169654
:10069E000E942F058D010E94F703EE83FF83E0E099
:1006AE00E887E987DE011A960E942F050E9444050D
:1006BE00FA93EA931A930A93EDECF1E0FA93EA9324
:1006CE00DE011A96A3DE9F01AE81BF81E0E0EC93BE
:1006DE00F9010E945A052A96FF900895BA93AA939B
:1006EE00A991B991EE27FF276D91662311F03196EE
:1006FE00FBCF0895BA93AA93AA27BB27E991F99144
:10070E000590002011F01196FBCFFD0108950E9477
:10071E003F050E946E04A0E0B0E080EC9FE30E94D3
:10072E009C04DF01CB01E0E0F0EC6FE774E40E9483
:10073E00EA04A0E0B0E086E193E40E949C04DF01AD
:10074E00CB01E0E0F0E060EC7FE30E94EA040E945F
:10075E00370408950A921A92FA926A937A938A93B8
:10076E009A93AA93BA93EA93FA93EFB7EA930895FA
:10077E000E943F050E944C0508950E944201A3E08D
:10078E00B0E00C94FE03A0E30E942E0188EC90E0F2
:10079E000197F1F708952A93AD85BE85EF85F88907
:1007AE0009950895E889F9893497E88BF98B0895AE
:1007BE00AD85BE85EF85F88909950895A889B98913
:1007CE0014960E944405EE83FF83AE81BF81089587
:1007DE00A889B98914960E944405EA87FB87089573
:1007EE00DE011C960E942F050E9444050895109666
:1007FE0039F080ED97E00197F1F7A8951197C9F7B9
:10080E000895552342F4503811F4E0FF04C0319698
:10081E00691F791F6BF050E8572711F45F9373C06F
:10082E005F3F31F0660F000C57956795752F089551
:10083E005F9300200AF073C06CC050E8192E152289
:10084E00880F991F9527550F879550E8072E05227B
:10085E00660F771F7527550F67950895689401C029
:10086E00E8945F93F2DF703818F07F3F08F44BC0C6
:10087E0056E1571BAAF4519558300EF4593030F00A
:10088E00EFEFFFEF6FEF7FE777F91AC0772755236A
:10089E00B9F0EE0FFF1F661F771F5A95D1F710C0E4
:1008AE007727583028F0EF2FF62F672F5850F9CFB3
:1008BE00552331F076956795F795E7955A95D1F7CB
:1008CE0000200AF4CDD05F910895689401C0E89499
:1008DE00309760407040B1F0002426F0772312F478
:1008EE000094BED0172E7EE1112032F07A95EE0FD5
:1008FE00FF1F661F111CF9CFEF2FF62F612D5F938F
:10090E008ADF5F910895EE27FF27662777275F918D
:10091E000895EFEFFFEF6FE77FEF5F910895EFEF31
:10092E00FFEF6FE77FE75F9108955F9386DF703883
:10093E0051F3903841F301240894791F23F41CF3EA
:10094E0000203AF3ECCF0F921F932F933F934F93C8
:10095E00112722279927689FA0018F9F302D410DC7
:10096E00591F6B9F300D411D591F8E9F27D0BF9F62
:10097E0025D06A9F23D0BE9F1DD0AF9F1BD0AE9FA8
:10098E00110D291F391F491F591FE32FF42F652FF2
:10099E00522F4F913F912F911F910F9066232AF066
:1009AE00550FEE1FFF1F661F02C073954BF229DF16
:1009BE005F910895100D211D391F02C0200D311DAC
:1009CE00491F591F08955F9338DF703821F41120A5
:1009DE000AF49FCFA4CF903809F495CF0124089440
:1009EE00970B1BF4D4F30020F3CF792F1F932F9383
:1009FE003F934F931124112722273327442755273E
:100A0E0090E2AE17BF078607410730F0AE1BBF0B53
:100A1E00860B410B089401C08894551F221F331F6B
:100A2E00111CAA1FBB1F881F441F9A9551F7F9016D
:100A3E00612D4F913F912F911F91662332F0550FEB
:100A4E00EE1FFF1F661F7A9543F2DBDE5F9108955E
:100A5E000024AF0DB01D0895F195E195F040089575
:100A6E00F09560957095E195FF4F6F4F7F4F08950C
:100A7E006F2F660F660B762F0895ED91FC911197EF
:100A8E0008950590F491E02D08957A936A93FA9360
:100A9E00EA9308955A934A933A932A931A930A9390
:100AAE0008955D814C813B812A81198108810895C9
:00000001FF
