:080000000C943A000C94670017
:100008000C9471000C9400000C9400000C940000F7
:100018000C9400000C9400000C9400000C94000058
:100028000C9400000C9400000C9400000C94000048
:100038000C9400000C9400000C9400000C94000038
:100048000C9400000C9400000C9400001027E803A6
:1000580064000A000100001000011000010025647E
:10006800000080C0020060026A000000F894EE27D9
:10007800ECBBF1E0FBBFEBBFE5BF8DE0A2E0BB2727
:10008800ED938A95E9F780E098E0A0E6ED93019773
:10009800E9F7ECE6F0E085919591009761F0A5917C
:1000A800B59105901590BF01F00105900D9201974B
:1000B800E1F7FB01F0CFEFE5EDBFE8E0EEBFC0E60A
:1000C800D2E00C947E00EA93EFB7EA93E3B5E03F01
:1000D80018F4E3B5E15FE3BD09C0EA93EFB7EA932B
:1000E800E3B5E03118F0E3B5EF50E3BDE991EFBFB8
:1000F800E9911895A097E0E0EABBEBBBE7BBE8BB4A
:10010800E4BBE5BBE0E8E1BBE0E0E2BBE3BFE2BFA4
:10011800ECBFEFBDEEBDEDBDECBDE7BDE6BDEBBD93
:10012800EABDE9BDE8BDE2BDEBE6E5BDE0E0E4BD62
:10013800E2E0E3BDE0E0E9BFEBB7E06CEBBFEFE086
:10014800E5BFE0E0E4BFE0ECEABFE0E0EAB9E0E800
:10015800E8B9E0E0E0BFE6B9EDB9E6BFA0E17AD0E2
:100168007894FE01FA93EA93E6E6F0E0FA93EA93CC
:10017800E3B5FF27662777270E94710384E00E9472
:10018800D002289635D0DE0154D0A4E6B0E00E9413
:100198005703E7CFFFCFAA93EBB3EF70AE2FE881F9
:1001A800E07FEA2BEBBB8DE08A95F1F7DA9A8DE0D8
:1001B8008A95F1F7DA988DE08A95F1F777C0AA93D6
:1001C800A881E9DFE881E295E883A881E4DF85E892
:1001D8008A95F1F76BC0AA93E881F0E0E05AFD4FE9
:1001E800E081A981AE0FEBDF5980488022960895FF
:1001F800A2E00E941D03ACE0E2DFA1E00E941D0323
:10020800E0E04E2E5E2E0895AA93A881AA3011F040
:10021800571448F0E0E0EA934394A42DDCDFA8816A
:10022800AA3009F443C05394D89AA881C8DFD89853
:100238003DC0BA93AA931A93A981BA81ED91A98373
:10024800BA831E2FE03019F0A12FDEDFF5CF188119
:1002580023960895AA93EAB3E06FEABBD29AD09A9C
:10026800D19ADA98D898D9987880E881E058E093BC
:100278006202E881E054E0936302A4E1B0E00E94E6
:1002880057030E9423030E9423030E942303A0E232
:1002980082DF88EC90E00197F1F7A8E290DFA4E014
:1002A8008EDFA5E88CDFA6E08ADFA2DF219608951D
:1002B800BA93AA931A930A93AA81BB8112960E94B1
:1002C8006903309759F1AA81BB8114960E9469038A
:1002D8008F01309761F00230E0E01E0798F0F801D6
:1002E80031978F01AA81BB811496ED93FC93AA8163
:1002F800BB811296ED91FD913196FE93EE93319765
:10030800AC81A083AA81BB810E946903FF232AF0E4
:10031800ED91FD913196FE93EE9306C0AA81BB81C3
:10032800EFEFFFEFED93FC9319810881259608956F
:10033800BA93AA9326970E94760310E0AC85BD85F0
:10034800E0E0F0E0ED93FC93EA89FB893196EA8BD3
:10035800FB8B3197E4912E2FE03009F415C1E12F82
:10036800E03039F4253211F411E002C00E942B0369
:100378000AC1E130A9F4253219F40E942B0302C105
:1003880012E040E000E02D3211F401E0FCC02B3215
:1003980011F44BE2F8C0203211F440E2F4C002C07C
:1003A800E23039F450E013E0203311F40068EBC078
:1003B80003C0E33009F0E7C0203310F02A3308F017
:1003C80007C0AAE05A9F502DE22FE0535E0FDBC012
:1003D800E22FE33649F40E943203E889F989A481BF
:1003E800AA930E943803CEC0E33741F40E94320337
:1003F8000E943E030E9404031E2F0AC0E03761F4E6
:100408000E9432030E943E030E9410031E2F0860C0
:1004180002600F7730E034C0E43611F0E93611F4A9
:10042800046002C0E53731F4E4E5F0E0EE83FF83D1
:1004380015E00CC0E83511F4086003C0E83709F08E
:10044800A1C0EEE5F0E0EE83FF8314E002FF14C0E4
:100458000E9432030E944803AB85AA233AF4EA8536
:10046800FB850E946503EA87FB874DE2403011F067
:100478001F5F01C00B7F04C00E9432030E94480323
:1004880000FD11C0151778F407FF08C002FF04C06B
:100498000B7F242F115001C020E301C020E20E94ED
:1004A8002B035150EFCF312F01FF17C03030A1F08F
:1004B80003FF06C0EE81FF812591EE83FF8305C00F
:1004C800AE81BF812D91AE83BF830E942B03503034
:1004D80009F051503150EACF4BC020E3EE81FF8143
:1004E8000E946D03E887F987EE81FF813296EE83DB
:1004F800FF83E885F985AA85BB85AE17BF0750F04D
:100508002F5FA885B985EA85FB85EA1BFB0BEA877F
:10051800FB87EFCF2A3328F003FF02C0295F01C011
:10052800295D04FD1AC0213320F4A885B9851197E7
:1005380009F409C0531710F000FF01C013C020E2EE
:1005480007FF0BC020E3006102FF07C00B7F4A933F
:100558000E943803503009F051500E942B0350304C
:1005680009F051503150A885B985129708F0B5CFD8
:1005780000FF08C0503031F05150E0E2EA930E9489
:100588003803F8CF10E0E0CEAC85BD850E94690342
:100598000E947D0364960895FF92F82E26970E9484
:1005A80078030E945003309719F4EFEFFFEF23C050
:1005B800DE0116960E9461038D010E945003EE83AE
:1005C800FF83E0E0E887E987DE011A960E9461036D
:1005D8000E946903FA93EA931A930A93ECE5F1E00F
:1005E800FA93EA93DE011A96A3DE9F01AE81BF81DA
:1005F800E0E0EC93F9010E947F032A96FF900895AA
:10060800BA93AA93A991B991EE27FF276D91662312
:1006180011F03196FBCF0895BA93AA93AA27BB2766
:10062800E991F9910590002011F01196FBCFFD0199
:1006380008950E94E300A3E0B0E00C945703A0E300
:100648000E94CF0088EC90E00197F1F708952A9373
:10065800AD85BE85EF85F88909950895E889F989FA
:100668003497E88BF98B0895AD85BE85EF85F889B9
:1006780009950895A889B98914960E946903EE839B
:10068800FF83AE81BF810895A889B98914960E9415
:100698006903EA87FB870895DE011C960E946103BF
:1006A8000E9469030895109639F080ED97E001974C
:1006B800F1F7A8951197C9F708950024AF0DB01D5B
:1006C8000895F195E195F0400895ED91FC91119709
:1006D80008950590F491E02D08957A936A93FA931A
:1006E800EA9308955A934A933A932A931A930A934A
:1006F80008955D814C813B812A8119810881089583
:00000001FF
