:080000000C9457000C94000061
:100008000C9400000C9400000C9400000C94000068
:100018000C9400000C94BF000C9400000C94000099
:100028000C94A1000C9400000C94F4000C940000B3
:100038000C9400000C9400000C9400000C94000038
:100048000C9432010C9400000C9400001027E80373
:1000580064000A0001000010000110000100000007
:10006800000000000100000016002C00733D25640C
:10007800743D256420643D25642074656D313D25FB
:100088006474656D323D2564000080C00A00040078
:100098006600010062027000010063027200020043
:1000A8008F0292000000F894EE27ECBBF1E0FBBF52
:1000B800EBBFE5BF8DE0A2E0BB27ED938A95E9F79A
:1000C80080E098E0A0E6ED930197E9F7E4E9F0E035
:1000D80085919591009761F0A591B591059015903E
:1000E800BF01F00105900D920197E1F7FB01F0CFF8
:1000F800EFE5EDBFE8E0EEBFC0E6D2E00C946801A2
:10010800A0E0D4D02F010E9431042F01A8ECB0E068
:100118000E94BB04A3E0CAD03F010E9431043F0102
:100128000895F301E419F5095F010024A014B0044F
:1001380014F4AA24BB24AFB808950E945404A4E878
:10014800B2E00E946204A0918402B0918502A83EA8
:10015800E3E0BE0779F40E946804A6E8B2E00E94D2
:100168006204A0918602B0918702159719F4C8DF3E
:100178000E946E048DC00E945404A0E6B2E00E9462
:100188006204A0916002B0916102A83EE3E0BE075C
:1001980031F5A8E8B2E00E946204E0918A02F09189
:1001A8008B02309779F4A0918802B0918902139755
:1001B80041F40E947404E1E0F0E0E0938A02F093D5
:1001C8008B0208C0A0918802B0918902139711F49C
:1001D8000E947404E0E0E0936002E093610258C07A
:1001E8000E945404EFB1E0938E02E0918C02F091EA
:1001F8008D023097E1F4E0916302A0918E02EA1734
:10020800A9F40A2C0B2871F0E1E0F0E0E0938C02ED
:10021800F0938D02AAE0B0E00E94BB04E091620274
:10022800EFB904C0CC24DD24E0E0E3BD16C0E0E073
:10023800E0938C02E0938D02C0908E02DD24F601DB
:100248000E94FC050E942B05A0E0B0E08AE292E43F
:100258000E9459050E94F204E3BD1AC00E9454048A
:10026800979A082C092859F4E8E0E3BFE1E0F0E0A8
:100278004F010E9468040E946E0442DF09C088246E
:1002880099240E9468040E946E043ADFEBE0E3BF01
:10029800E991EFBFF991E991B991A9919991899162
:1002A80079916991F990199009901895AA93E88124
:1002B800E7B98BE18A95F1F7369A349BFECF349AE9
:1002C800E4B1F5B10C947402E0E0EABBEBBBE0E406
:1002D800E7BBE0E0E8BBE4BBE5BBE0E8E1BBE0E0AE
:1002E800E2BBEBE0E3BFE0E0E2BFECE7ECBFE0E05D
:1002F800EFBDE9E0EEBDE0E0EDBDECBDE7BDE6BD7C
:10030800EFE1EBBDEFE3EABDE0E0E9BDE8BDE2BD4A
:10031800ECE6E5BDE0E0E4BDE3BDE2E1E9BFE0E035
:10032800E5BFE4BFEAB9E8E0E8B9E0E0E7B9E4E846
:10033800E6B9E0E0E0BFE0ECEDB9E0E0EEB9EEB13F
:10034800EFB1E0E0E6BFA0E19ED07894D9DEE0E02E
:10035800EA93A0E048D0E4E6F2E0FA93EA93E4E70F
:10036800F0E0FA93EA93F6010E947C04F5010E94FA
:100378007C04E0918E02FF27662777270E940906F2
:10038800F2010E947C04F3010E947C0484E10E9433
:10039800E4036896A4E6B2E065D0A2E3B0E00E9468
:1003A800BB04D5CFFFCFAA93E5B3EF70AE2FE8819A
:1003B800E07FEA2BE5BB8DE08A95F1F7AA9A8DE0FC
:1003C8008A95F1F7AA988DE08A95F1F789C0AA93E2
:1003D800A881E9DFE881E295E883A881E4DF85E880
:1003E8008A95F1F77DC0AA93E881F0E0E157FD4FC7
:1003F800E081A981AE0FEBDFE981E0939302E88108
:10040800E093940222960895A2E00E948104ACE051
:10041800DEDFA1E00E948104E0E0E0939402E09333
:1004280093020895AA93A881AA3031F0E091950229
:10043800A0919302AE1760F0E0E0EA93A0919402D5
:10044800AF5FA0939402CFDFA881AA3009F448C017
:10045800E0919302EF5FE0939302A89AA881B7DF37
:10046800A8983EC0BA93AA931A93A981BA81ED912C
:10047800A983BA831E2FE03019F0A12FD3DFF5CF5F
:10048800188123960895AA93E4B3E06FE4BBA29A77
:10049800A09AA19AAA98A898A998E881E0939502A9
:1004A800E058E0939102E881E054E0939202A4E1DD
:1004B800B0E00E94BB040E9487040E9487040E9447
:1004C8008704A0E270DF88EC90E00197F1F7A8E2DA
:1004D8007EDFA4E07CDFA5E87ADFA6E078DF94DFA2
:1004E80021960895BA93AA931A930A93AA81BB8175
:1004F80012960E940106309729F1AA81BB811496B1
:100508000E9401068F01309761F00230E0E01E077B
:1005180080F0F80131978F01AA81BB811496ED9381
:10052800FC93AA81BB8112960E9462043197AC8128
:10053800A083AA81BB810E940106FF2312F00E94BA
:10054800620406C0AA81BB81EFEFFFEFED93FC9335
:100558001981088125960895BA93AA9326970E942F
:100568000E0610E0AC85BD85E0E0F0E0ED93FC936D
:10057800EA89FB893196EA8BFB8B3197E4912E2F20
:10058800E03009F415C1E12FE03039F4253211F4D7
:1005980011E002C00E948F040AC1E130A9F425329B
:1005A80019F40E948F0402C112E040E000E02D32ED
:1005B80011F401E0FCC02B3211F44BE2F8C02032F8
:1005C80011F440E2F4C002C0E23039F450E013E024
:1005D800203311F40068EBC003C0E33009F0E7C032
:1005E800203310F02A3308F007C0AAE05A9F502D94
:1005F800E22FE0535E0FDBC0E22FE33649F40E949E
:100608009604E889F989A481AA930E949C04CEC023
:10061800E33741F40E9496040E94A2040E94180441
:100628001E2F0AC0E03761F40E9496040E94A204BB
:100638000E9424041E2F086002600F7730E034C047
:10064800E43611F0E93611F4046002C0E53731F4FC
:10065800E4E5F0E0EE83FF8315E00CC0E83511F423
:10066800086003C0E83709F0A1C0EEE5F0E0EE83CA
:10067800FF8314E002FF14C00E9496040E94AC0499
:10068800AB85AA233AF4EA85FB850E94F005EA8740
:10069800FB874DE2403011F01F5F01C00B7F04C0A3
:1006A8000E9496040E94AC0400FD11C0151778F44E
:1006B80007FF08C002FF04C00B7F242F115001C0A0
:1006C80020E301C020E20E948F045150EFCF312F68
:1006D80001FF17C03030A1F003FF06C0EE81FF8193
:1006E8002591EE83FF8305C0AE81BF812D91AE8336
:1006F800BF830E948F04503009F051503150EACF27
:100708004BC020E3EE81FF810E940506E887F98748
:10071800EE81FF813296EE83FF83E885F985AA850D
:10072800BB85AE17BF0750F02F5FA885B985EA854E
:10073800FB85EA1BFB0BEA87FB87EFCF2A3328F000
:1007480003FF02C0295F01C0295D04FD1AC02133DF
:1007580020F4A885B985119709F409C0531710F03A
:1007680000FF01C013C020E207FF0BC020E30061B7
:1007780002FF07C00B7F4A930E949C04503009F087
:1007880051500E948F04503009F051503150A885C3
:10079800B985129708F0B5CF00FF08C0503031F086
:1007A8005150E0E2EA930E949C04F8CF10E0E0CEBA
:1007B800AC85BD850E9401060E94150664960895C1
:1007C800FF92F82E26970E9410060E94B4043097D4
:1007D80019F4EFEFFFEF23C0DE0116960E94EC0537
:1007E8008D010E94B404EE83FF83E0E0E887E98787
:1007F800DE011A960E94EC050E940106FA93EA931C
:100808001A930A93E6E7F2E0FA93EA93DE011A965E
:10081800A3DE9F01AE81BF81E0E0EC93F9010E9465
:1008280017062A96FF900895BA93AA93A991B991A9
:10083800EE27FF276D91662311F03196FBCF0895BF
:10084800BA93AA93AA27BB27E991F99105900020AA
:1008580011F01196FBCFFD0108950E94FC050E943E
:100868002B05A0E0B0E080EC9FE30E945905DF0172
:10087800CB01E0E0F0EC6FE774E40E94A705A0E08C
:10088800B0E086E193E40E945905DF01CB01E0E086
:10089800F0E060EC7FE30E94A7050E94F40408954D
:1008A8000A921A92FA926A937A938A939A93AA93DB
:1008B800BA93EA93FA93EFB7EA930895ED91FD910D
:1008C8003196FE93EE930895E0E0E0938402E0937E
:1008D80085020895E0E0E0938602E0938702089598
:1008E8000E949500E0E0E0938802E0938902089571
:1008F8000E94FC050E94090608950E94EB01A3E0EE
:10090800B0E00C94BB04A0E30E94D70188EC90E00F
:100918000197F1F708952A93AD85BE85EF85F8898B
:1009280009950895E889F9893497E88BF98B089532
:10093800AD85BE85EF85F88909950895A889B98997
:1009480014960E940106EE83FF83AE81BF8108954D
:10095800A889B98914960E940106EA87FB87089539
:10096800DE011C960E94EC050E940106089510966F
:1009780039F080ED97E00197F1F7A8951197C9F73D
:100988000895552342F4503811F4E0FF04C031961D
:10099800691F791F6BF050E8572711F45F9373C0F4
:1009A8005F3F31F0660F000C57956795752F0895D6
:1009B8005F9300200AF073C06CC050E8192E15220E
:1009C800880F991F9527550F879550E8072E052200
:1009D800660F771F7527550F67950895689401C0AE
:1009E800E8945F93F2DF703818F07F3F08F44BC04B
:1009F80056E1571BAAF4519558300EF4593030F08F
:100A0800EFEFFFEF6FEF7FE777F91AC077275523EE
:100A1800B9F0EE0FFF1F661F771F5A95D1F710C068
:100A28007727583028F0EF2FF62F672F5850F9CF37
:100A3800552331F076956795F795E7955A95D1F74F
:100A480000200AF4CDD05F910895689401C0E8941D
:100A5800309760407040B1F0002426F0772312F4FC
:100A68000094BED0172E7EE1112032F07A95EE0F59
:100A7800FF1F661F111CF9CFEF2FF62F612D5F9313
:100A88008ADF5F910895EE27FF27662777275F9112
:100A98000895EFEFFFEF6FE77FEF5F910895EFEFB6
:100AA800FFEF6FE77FE75F9108955F9386DF703808
:100AB80051F3903841F301240894791F23F41CF36F
:100AC80000203AF3ECCF0F921F932F933F934F934D
:100AD800112722279927689FA0018F9F302D410D4C
:100AE800591F6B9F300D411D591F8E9F27D0BF9FE7
:100AF80025D06A9F23D0BE9F1DD0AF9F1BD0AE9F2D
:100B0800110D291F391F491F591FE32FF42F652F76
:100B1800522F4F913F912F911F910F9066232AF0EA
:100B2800550FEE1FFF1F661F02C073954BF229DF9A
:100B38005F910895100D211D391F02C0200D311D30
:100B4800491F591F08955F9338DF703821F4112029
:100B58000AF49FCFA4CF903809F495CF01240894C4
:100B6800970B1BF4D4F30020F3CF792F1F932F9307
:100B78003F934F93112411272227332744275527C2
:100B880090E2AE17BF078607410730F0AE1BBF0BD8
:100B9800860B410B089401C08894551F221F331FF0
:100BA800111CAA1FBB1F881F441F9A9551F7F901F2
:100BB800612D4F913F912F911F91662332F0550F70
:100BC800EE1FFF1F661F7A9543F2DBDE5F910895E3
:100BD8000024AF0DB01D0895F195E195F0400895FA
:100BE800F09560957095E195FF4F6F4F7F4F089591
:100BF8006F2F660F660B762F0895ED91FC91119774
:100C080008950590F491E02D08957A936A93FA93E4
:100C1800EA9308955A934A933A932A931A930A9314
:100C280008955D814C813B812A811981088108954D
:00000001FF
