:080000000C9445000C94000073
:100008000C9400000C9400000C9400000C94000068
:100018000C9400000C9400000C9400000C94000058
:100028000C9400000C9400000C9400000C94000048
:100038000C9400000C9400000C9400000C94000038
:100048000C9400000C9400000C9400001027E803A6
:1000580064000A0001000010000110000100547241
:10006800616E736D69743A256420746F3A25642053
:100078007265633A2564000080C002006002800057
:100088000000F894EE27ECBBF1E0FBBFEBBFE5BF47
:100098008DE0A2E0BB27ED938A95E9F780E098E030
:1000A800A0E6ED930197E9F7E2E8F0E085919591F4
:1000B800009761F0A591B59105901590BF01F001E9
:1000C80005900D920197E1F7FB01F0CFEFE5EDBF49
:1000D800E8E0EEBFC0E6D2E00C948000AA93E88185
:1000E800EFB9779907C0919AA4E6B0E00E94A103FE
:1000F8009198F7CFEFB106C1A197ECE2E88300E051
:1001080036E12CE240E050E0E0E0EABBEBBBE0EB9C
:10011800E7BBE0E0E8BBE4BBE5BBE1BBE2BBE3BFB8
:10012800E2BFECBFEFBDEEBDEDBDECBDE7BDE6BD8A
:10013800EBBDEABDE9BDE8BDE2BDE5BDE4BDE3BD9B
:10014800E9BFE5BFE4BFEAB9E0E8E8B9E0E0E0BF4D
:10015800E6B9E0E5EDB9E0E0EEB9E6BFA0E1A6D08A
:10016800B89AB99ABA9AC09AC19AC29A889A899A38
:1001780002E040E050E08F9A979A9798A8ECB0E098
:100188000E94A10310E0A22FA9DF1E2F5DD00E94BC
:100198004903E22F0E9452030E9458030E945F0302
:1001A800A12FBB27E4E0F0E00E94CB03309791F445
:1001B80010E0A02F93DF1E2F0E944903E02F0E941A
:1001C80052030E9458030E945F03311719F40F5F0E
:1001D8004F5F5F4F909AA4E6B0E00E94A103909809
:1001E800979AA8ECB0E00E94A103C7CFFFCFAA93CB
:1001F800E5B3EF70AE2FE881E07FEA2BE5BB8DE039
:100208008A95F1F7AA9A8DE08A95F1F7AA988DE078
:100218008A95F1F777C0AA93A881E9DFE881E2958A
:10022800E883A881E4DF85E88A95F1F76BC0AA9393
:10023800E881F0E0E05AFD4FE081A981AE0FEBDFE5
:100248005980488022960895A2E00E946703ACE096
:10025800E2DFA1E00E946703E0E04E2E5E2E0895E3
:10026800AA93A881AA3011F0571448F0E0E0EA9365
:100278004394A42DDCDFA881AA3009F443C0539429
:10028800A89AA881C8DFA8983DC0BA93AA931A93E0
:10029800A981BA81ED91A983BA831E2FE03019F0A4
:1002A800A12FDEDFF5CF188123960895AA93E4B332
:1002B800E06FE4BBA29AA09AA19AAA98A898A998D4
:1002C8007880E881E058E0936202E881E054E093A6
:1002D8006302A4E1B0E00E94A1030E946D030E94A2
:1002E8006D030E946D03A0E282DF88EC90E0019725
:1002F800F1F7A8E290DFA4E08EDFA5E88CDFA6E0A6
:100308008ADFA2DF21960895BA93AA931A930A93D3
:10031800AA81BB8112960E94D903309759F1AA810C
:10032800BB8114960E94D9038F01309761F0023087
:10033800E0E01E0798F0F80131978F01AA81BB8190
:100348001496ED93FC93AA81BB811296ED91FD91D1
:100358003196FE93EE933197AC81A083AA81BB813D
:100368000E94D903FF232AF0ED91FD913196FE9367
:10037800EE9306C0AA81BB81EFEFFFEFED93FC93EC
:100388001981088125960895BA93AA9326970E9401
:10039800E60310E0AC85BD85E0E0F0E0ED93FC936A
:1003A800EA89FB893196EA8BFB8B3197E4912E2FF2
:1003B800E03009F415C1E12FE03039F4253211F4A9
:1003C80011E002C00E9475030AC1E130A9F4253288
:1003D80019F40E94750302C112E040E000E02D32DA
:1003E80011F401E0FCC02B3211F44BE2F8C02032CA
:1003F80011F440E2F4C002C0E23039F450E013E0F6
:10040800203311F40068EBC003C0E33009F0E7C003
:10041800203310F02A3308F007C0AAE05A9F502D65
:10042800E22FE0535E0FDBC0E22FE33649F40E946F
:100438007C03E889F989A481AA930E948203CEC02B
:10044800E33741F40E947C030E9488030E94300332
:100458001E2F0AC0E03761F40E947C030E948803C3
:100468000E943C031E2F086002600F7730E034C002
:10047800E43611F0E93611F4046002C0E53731F4CE
:10048800E4E5F0E0EE83FF8315E00CC0E83511F4F5
:10049800086003C0E83709F0A1C0EEE5F0E0EE839C
:1004A800FF8314E002FF14C00E947C030E949203A1
:1004B800AB85AA233AF4EA85FB850E94AF03EA8755
:1004C800FB874DE2403011F01F5F01C00B7F04C075
:1004D8000E947C030E94920300FD11C0151778F456
:1004E80007FF08C002FF04C00B7F242F115001C072
:1004F80020E301C020E20E9475035150EFCF312F55
:1005080001FF17C03030A1F003FF06C0EE81FF8164
:100518002591EE83FF8305C0AE81BF812D91AE8307
:10052800BF830E947503503009F051503150EACF13
:100538004BC020E3EE81FF810E94DD03E887F98745
:10054800EE81FF813296EE83FF83E885F985AA85DF
:10055800BB85AE17BF0750F02F5FA885B985EA8520
:10056800FB85EA1BFB0BEA87FB87EFCF2A3328F0D2
:1005780003FF02C0295F01C0295D04FD1AC02133B1
:1005880020F4A885B985119709F409C0531710F00C
:1005980000FF01C013C020E207FF0BC020E3006189
:1005A80002FF07C00B7F4A930E948203503009F074
:1005B80051500E947503503009F051503150A885B0
:1005C800B985129708F0B5CF00FF08C0503031F058
:1005D8005150E0E2EA930E948203F8CF10E0E0CEA7
:1005E800AC85BD850E94D9030E94ED0364960895E9
:1005F800FF92F82E26970E94E8030E949A033097EC
:1006080019F4EFEFFFEF23C0DE0116960E94AB034B
:100618008D010E949A03EE83FF83E0E0E887E98773
:10062800DE011A960E94AB030E94D903FA93EA935B
:100638001A930A93E8E8F1E0FA93EA93DE011A962E
:10064800A3DE9F01AE81BF81E0E0EC93F9010E9437
:10065800EF032A96FF900895BA93AA93A991B991A6
:10066800EE27FF276D91662311F03196FBCF089591
:10067800BA93AA93AA27BB27E991F991059000207C
:1006880011F01196FBCFFD010895FE013196FA9302
:10069800EA93E6E6F0E0FA93EA930895FF276627DF
:1006A80077270E94E1030895FA010E94B3030E948C
:1006B800E103E12FF3CF8CE00E94FC026096DE019B
:1006C80011960C9449010E940F01A3E0B0E00C942C
:1006D800A103A0E30E94FB0088EC90E00197F1F7EA
:1006E80008952A93AD85BE85EF85F8890995089503
:1006F800E889F9893497E88BF98B0895AD85BE852B
:10070800EF85F88909950895A889B98914960E94F2
:10071800D903EE83FF83AE81BF810895A889B98983
:1007280014960E94D903EA87FB870895DE011C9678
:100738000E94AB030E94D9030895109639F080ED0A
:1007480097E00197F1F7A8951197C9F70895002444
:10075800AF0DB01D0895F195E195F04008956F2F04
:10076800660F660B762F08950024112490E1AA0FD6
:10077800BB1F001C111C0E1A1F0A18F40E0E1F1E98
:1007880001C0A1609A9599F7FD01D0010895E894F8
:10079800B7FF04C0A095B09511966894F7FDDBDF0C
:1007A800E3DFFD010EF4D7DF0895ED91FC91119779
:1007B80008950590F491E02D08957A936A93FA9339
:1007C800EA9308955A934A933A932A931A930A9369
:1007D80008955D814C813B812A81198108810895A2
:00000001FF
