:100000000C9457000C9400000C9400000C94000019
:100010000C9400000C9400000C9400000C94BD00A3
:100020000C9400000C9400000C949F000C940000B1
:100030000C94D2000C9400000C9400000C9400006E
:100040000C9400000C9400000C940B010C94000024
:100050000C9400001027E80364000A00010000105F
:10006000000110000100000000000000010000007D
:1000700016002C00733D2564743D256420643D25E5
:10008000642074656D313D256474656D323D256471
:10009000000080C00A0004006600010062027000D7
:1000A00001006302720002008B0292000000F894CB
:1000B000EE27ECBBF1E0FBBFEBBFE5BF8DE0A2E0BC
:1000C000BB27ED938A95E9F780E098E0A0E6ED93F1
:1000D0000197E9F7E4E9F0E085919591009761F0E7
:1000E000A591B59105901590BF01F00105900D9275
:1000F0000197E1F7FB01F0CFEFE5EDBFE8E0EEBFE0
:10010000C0E6D2E00C944101A0E0ADD02F010E94E6
:1001100005042F01A8ECB0E00E948704A3E0A3D05F
:100120003F010E9405043F010895F201E619F70915
:100130005F01A4EFB1E00E948704AFB808950E9468
:100140002804A4E8B2E00E943604A0918402B09191
:100150008502A83EE3E0BE0779F40E943C04A6E8CD
:10016000B2E00E943604A0918602B09187021597F2
:1001700019F4CADF0E94420468C00E942804A0E665
:10018000B2E00E943604A0916002B0916102A83EE4
:10019000E3E0BE0731F4E0E0E0936002E093610247
:1001A000C4DF53C00E942804EFB1E0938A02E091BB
:1001B0008802F09189023097B9F4E0916302A0912E
:1001C0008A02EA1781F40A2C0B2869F0E1E0F0E0DA
:1001D000E0938802F0938902A8ECB0E00E948704C3
:1001E000E0916202EFB916C0E0E0E0938802E0938C
:1001F0008902C0908A02DD24F6010E94C8050E948F
:10020000F704A0E0B0E08AE292E40E9425050E9493
:10021000BE04E3BD1AC00E942804979A082C09283E
:1002200059F4E1E0F0E04F010E943C040E944204D6
:100230006BDFEBE0E3BF09C0E8E0E3BF882499246B
:100240000E943C040E9442045FDFE991EFBFF991F4
:10025000E991B991A9919991899179916991F990CF
:10026000199009901895AA93E881E7B98BE18A95CE
:10027000F1F7369A349BFECF349AE4B1F5B10C9481
:100280004802E0E0EABBEBBBE0E4E7BBE0E0E8BB50
:10029000E4BBE5BBE0E8E1BBE0E0E2BBE8E0E3BFF4
:1002A000E0E0E2BFECE7ECBFE0E0EFBDE9E0EEBD8F
:1002B000E0E0EDBDECBDE7BDE6BDEFE1EBBDEFE39A
:1002C000EABDE0E0E9BDE8BDE2BDECE6E5BDE0E0A9
:1002D000E4BDE3BDE2E1E9BFE0E0E5BFE4BFEAB9C8
:1002E000E8E0E8B9E0E0E7B9E4E8E6B9E0E0E0BF7B
:1002F000E8ECEDB9E0E0EEB9EEB1EFB1E0E0E6BF79
:10030000A0E199D07894E0E0EA93A0E044D0E4E65C
:10031000F2E0FA93EA93E4E7F0E0FA93EA93F60165
:100320000E944804F5010E944804E0918A02FF27D8
:10033000662777270E94D505F2010E944804F30141
:100340000E94480484E10E94B8036896A4E6B2E0E3
:1003500061D0D9CFFFCFAA93E5B3EF70AE2FE8817C
:10036000E07FEA2BE5BB8DE08A95F1F7AA9A8DE054
:100370008A95F1F7AA988DE08A95F1F789C0AA933A
:10038000A881E9DFE881E295E883A881E4DF85E8D8
:100390008A95F1F77DC0AA93E881F0E0E557FD4F1B
:1003A000E081A981AE0FEBDFE981E0938F02E88164
:1003B000E093900222960895A2E00E944D04ACE0E2
:1003C000DEDFA1E00E944D04E0E0E0939002E093C4
:1003D0008F020895AA93A881AA3031F0E09191028A
:1003E000A0918F02AE1760F0E0E0EA93A091900236
:1003F000AF5FA0939002CFDFA881AA3009F448C074
:10040000E0918F02EF5FE0938F02A89AA881B7DF97
:10041000A8983EC0BA93AA931A93A981BA81ED9184
:10042000A983BA831E2FE03019F0A12FD3DFF5CFB7
:10043000188123960895AA93E4B3E06FE4BBA29ACF
:10044000A09AA19AAA98A898A998E881E093910205
:10045000E058E0938D02E881E054E0938E02A4E13D
:10046000B0E00E9487040E9453040E9453040E943B
:100470005304A0E270DF88EC90E00197F1F7A8E266
:100480007EDFA4E07CDFA5E87ADFA6E078DF94DFFA
:1004900021960895BA93AA931A930A93AA81BB81CD
:1004A00012960E94CD05309729F1AA81BB8114963E
:1004B0000E94CD058F01309761F00230E0E01E0709
:1004C00080F0F80131978F01AA81BB811496ED93DA
:1004D000FC93AA81BB8112960E9436043197AC81AD
:1004E000A083AA81BB810E94CD05FF2312F00E9448
:1004F000360406C0AA81BB81EFEFFFEFED93FC93BA
:100500001981088125960895BA93AA9326970E9487
:10051000DA0510E0AC85BD85E0E0F0E0ED93FC93FA
:10052000EA89FB893196EA8BFB8B3197E4912E2F78
:10053000E03009F415C1E12FE03039F4253211F42F
:1005400011E002C00E945B040AC1E130A9F4253227
:1005500019F40E945B0402C112E040E000E02D3279
:1005600011F401E0FCC02B3211F44BE2F8C0203250
:1005700011F440E2F4C002C0E23039F450E013E07C
:10058000203311F40068EBC003C0E33009F0E7C08A
:10059000203310F02A3308F007C0AAE05A9F502DEC
:1005A000E22FE0535E0FDBC0E22FE33649F40E94F6
:1005B0006204E889F989A481AA930E946804CEC0E4
:1005C000E33741F40E9462040E946E040E94EC032F
:1005D0001E2F0AC0E03761F40E9462040E946E047C
:1005E0000E94F8031E2F086002600F7730E034C0CD
:1005F000E43611F0E93611F4046002C0E53731F455
:10060000E4E5F0E0EE83FF8315E00CC0E83511F47B
:10061000086003C0E83709F0A1C0EEE5F0E0EE8322
:10062000FF8314E002FF14C00E9462040E94780459
:10063000AB85AA233AF4EA85FB850E94BC05EA87CC
:10064000FB874DE2403011F01F5F01C00B7F04C0FB
:100650000E9462040E94780400FD11C0151778F40E
:1006600007FF08C002FF04C00B7F242F115001C0F8
:1006700020E301C020E20E945B045150EFCF312FF4
:1006800001FF17C03030A1F003FF06C0EE81FF81EB
:100690002591EE83FF8305C0AE81BF812D91AE838E
:1006A000BF830E945B04503009F051503150EACFB3
:1006B0004BC020E3EE81FF810E94D105E887F987D6
:1006C000EE81FF813296EE83FF83E885F985AA8566
:1006D000BB85AE17BF0750F02F5FA885B985EA85A7
:1006E000FB85EA1BFB0BEA87FB87EFCF2A3328F059
:1006F00003FF02C0295F01C0295D04FD1AC0213338
:1007000020F4A885B985119709F409C0531710F092
:1007100000FF01C013C020E207FF0BC020E300610F
:1007200002FF07C00B7F4A930E946804503009F013
:1007300051500E945B04503009F051503150A8854F
:10074000B985129708F0B5CF00FF08C0503031F0DE
:100750005150E0E2EA930E946804F8CF10E0E0CE46
:10076000AC85BD850E94CD050E94E1056496089583
:10077000FF92F82E26970E94DC050E948004309795
:1007800019F4EFEFFFEF23C0DE0116960E94B805C3
:100790008D010E948004EE83FF83E0E0E887E98713
:1007A000DE011A960E94B8050E94CD05FA93EA93DD
:1007B0001A930A93EAE4F2E0FA93EA93DE011A96B6
:1007C000A3DE9F01AE81BF81E0E0EC93F9010E94BE
:1007D000E3052A96FF900895BA93AA93A991B99137
:1007E000EE27FF276D91662311F03196FBCF089518
:1007F000BA93AA93AA27BB27E991F9910590002003
:1008000011F01196FBCFFD0108950E94C8050E94CA
:10081000F704A0E0B0E080EC9FE30E942505DF0133
:10082000CB01E0E0F0EC6FE774E40E947305A0E018
:10083000B0E086E193E40E942505DF01CB01E0E012
:10084000F0E060EC7FE30E9473050E94C00408950D
:100850000A921A92FA926A937A938A939A93AA9333
:10086000BA93EA93FA93EFB7EA930895ED91FD9165
:100870003196FE93EE930895E0E0E0938402E093D6
:1008800085020895E0E0E0938602E09387020895F0
:100890000E94C8050E94D50508950E94BF01A3E0EB
:1008A000B0E00C948704A0E30E94AB0188EC90E0D8
:1008B0000197F1F708952A93AD85BE85EF85F889F4
:1008C00009950895E889F9893497E88BF98B08959B
:1008D000AD85BE85EF85F88909950895A889B98900
:1008E00014960E94CD05EE83FF83AE81BF810895EB
:1008F000A889B98914960E94CD05EA87FB870895D7
:10090000DE011C960E94B8050E94CD050895109640
:1009100039F080ED97E00197F1F7A8951197C9F7A5
:100920000895552342F4503811F4E0FF04C0319685
:10093000691F791F6BF050E8572711F45F9373C05C
:100940005F3F31F0660F000C57956795752F08953E
:100950005F9300200AF073C06CC050E8192E152276
:10096000880F991F9527550F879550E8072E052268
:10097000660F771F7527550F67950895689401C016
:10098000E8945F93F2DF703818F07F3F08F44BC0B3
:1009900056E1571BAAF4519558300EF4593030F0F7
:1009A000EFEFFFEF6FEF7FE777F91AC07727552357
:1009B000B9F0EE0FFF1F661F771F5A95D1F710C0D1
:1009C0007727583028F0EF2FF62F672F5850F9CFA0
:1009D000552331F076956795F795E7955A95D1F7B8
:1009E00000200AF4CDD05F910895689401C0E89486
:1009F000309760407040B1F0002426F0772312F465
:100A00000094BED0172E7EE1112032F07A95EE0FC1
:100A1000FF1F661F111CF9CFEF2FF62F612D5F937B
:100A20008ADF5F910895EE27FF27662777275F917A
:100A30000895EFEFFFEF6FE77FEF5F910895EFEF1E
:100A4000FFEF6FE77FE75F9108955F9386DF703870
:100A500051F3903841F301240894791F23F41CF3D7
:100A600000203AF3ECCF0F921F932F933F934F93B5
:100A7000112722279927689FA0018F9F302D410DB4
:100A8000591F6B9F300D411D591F8E9F27D0BF9F4F
:100A900025D06A9F23D0BE9F1DD0AF9F1BD0AE9F95
:100AA000110D291F391F491F591FE32FF42F652FDF
:100AB000522F4F913F912F911F910F9066232AF053
:100AC000550FEE1FFF1F661F02C073954BF229DF03
:100AD0005F910895100D211D391F02C0200D311D99
:100AE000491F591F08955F9338DF703821F4112092
:100AF0000AF49FCFA4CF903809F495CF012408942D
:100B0000970B1BF4D4F30020F3CF792F1F932F936F
:100B10003F934F931124112722273327442755272A
:100B200090E2AE17BF078607410730F0AE1BBF0B40
:100B3000860B410B089401C08894551F221F331F58
:100B4000111CAA1FBB1F881F441F9A9551F7F9015A
:100B5000612D4F913F912F911F91662332F0550FD8
:100B6000EE1FFF1F661F7A9543F2DBDE5F9108954B
:100B70000024AF0DB01D0895F195E195F040089562
:100B8000F09560957095E195FF4F6F4F7F4F0895F9
:100B90006F2F660F660B762F0895ED91FC911197DC
:100BA00008950590F491E02D08957A936A93FA934D
:100BB000EA9308955A934A933A932A931A930A937D
:100BC00008955D814C813B812A81198108810895B6
:00000001FF
