:0A0000000C9447000C9400000C94CF
:10000A0000000C9400000C9400000C9400000C9466
:10001A0000000C9400000C9400000C9400000C9456
:10002A0074000C9400000C9400000C9400000C94D2
:10003A0000000C9400000C9400000C9400000C9436
:10004A0075000C9400000C9400001027E80364006B
:10005A000A0001000010000110000100723D256431
:10006A002073656E643D2564200A2000723D256474
:10007A002073656E643D2564000080C00200600242
:10008A0084000000F894EE27ECBBF1E0FBBFEBBF65
:10009A00E5BF8DE0A2E0BB27ED938A95E9F780E002
:1000AA0098E0A0E6ED930197E9F7E6E8F0E085919C
:1000BA009591009761F0A591B59105901590BF01B2
:1000CA00F00105900D920197E1F7FB01F0CFEFE502
:1000DA00EDBFE8E0EEBFC0E6D2E00C9485001895CB
:1000EA001895AA93E881EFB9779907C0919AA4E67F
:1000FA00B0E00E9497039198F7CFEFB10C942D03CB
:10010A00A09736E12CE2E0E0EABBEBBBE0E4E7BB18
:10011A00E0E0E8BBE4BBE5BBE0E8E1BBE0E0E2BB72
:10012A00E8E0E3BFE0E0E2BFECE7ECBFE0E0EFBD10
:10013A00EEBDEDBDECBDE7BDE6BDEBBDEABDE9BD7B
:10014A00E8BDE2BDECE6E5BDE0E0E4BDE3BDE2E02A
:10015A00E9BFE0E0E5BFE4BFEAB9E8E0E8B9E0E01A
:10016A00E7B9E4E8E6B9E0E0E0BFE0E4EDB9E0E0F1
:10017A00EEB9E6BFA0E10E9401037894889A899AB1
:10018A0010E001E0A8ECB0E00E94970310E0A02F75
:10019A00A8DF1E2F0E94CF02FE01FA93EA93E6E639
:1001AA00F0E00E9448032117A1F4A02FBB27E4E046
:1001BA00F0E00E94BC03309759F410E0A32F91DFBE
:1001CA001E2FFE01FA93EA93E6E7F0E00E94480345
:1001DA000F5F909AA4E6B0E00E9497039098A8EC6B
:1001EA00B0E00E949703CECFFFCFBA93AA931A9397
:1001FA000A93AA81BB8112960E94CA03309759F1C9
:10020A00AA81BB8114960E94CA038F01309761F0BC
:10021A000230E0E01E0798F0F80131978F01AA81B9
:10022A00BB811496ED93FC93AA81BB811296ED9142
:10023A00FD913196FE93EE933197AC81A083AA810A
:10024A00BB810E94CA03FF232AF0ED91FD913196EA
:10025A00FE93EE9306C0AA81BB81EFEFFFEFED9309
:10026A00FC931981088125960895BA93AA93269733
:10027A000E94D70310E0AC85BD85E0E0F0E0ED9385
:10028A00FC93EA89FB893196EA8BFB8B3197E491DF
:10029A002E2FE03009F415C1E12FE03039F4253270
:1002AA0011F411E002C00E945D030AC1E130A9F411
:1002BA00253219F40E945D0302C112E040E000E019
:1002CA002D3211F401E0FCC02B3211F44BE2F8C0DC
:1002DA00203211F440E2F4C002C0E23039F450E0B6
:1002EA0013E0203311F40068EBC003C0E33009F0D7
:1002FA00E7C0203310F02A3308F007C0AAE05A9F5B
:10030A00502DE22FE0535E0FDBC0E22FE33649F4B3
:10031A000E946403E889F989A481AA930E946A0366
:10032A00CEC0E33741F40E9464030E9470030E9426
:10033A002F031E2F0AC0E03761F40E9464030E9453
:10034A0070030E943B031E2F086002600F7730E0A3
:10035A0034C0E43611F0E93611F4046002C0E5371E
:10036A0031F4E4E5F0E0EE83FF8315E00CC0E835F4
:10037A0011F4086003C0E83709F0A1C0EEE5F0E027
:10038A00EE83FF8314E002FF14C00E9464030E94FC
:10039A007A03AB85AA233AF4EA85FB850E94A50372
:1003AA00EA87FB874DE2403011F01F5F01C00B7FE7
:1003BA0004C00E9464030E947A0300FD11C015174D
:1003CA0078F407FF08C002FF04C00B7F242F1150E6
:1003DA0001C020E301C020E20E945D035150EFCF2B
:1003EA00312F01FF17C03030A1F003FF06C0EE81A4
:1003FA00FF812591EE83FF8305C0AE81BF812D91D8
:10040A00AE83BF830E945D03503009F051503150D2
:10041A00EACF4BC020E3EE81FF810E94CE03E8873A
:10042A00F987EE81FF813296EE83FF83E885F985AD
:10043A00AA85BB85AE17BF0750F02F5FA885B9857F
:10044A00EA85FB85EA1BFB0BEA87FB87EFCF2A339A
:10045A0028F003FF02C0295F01C0295D04FD1AC00C
:10046A00213320F4A885B985119709F409C05317D7
:10047A0010F000FF01C013C020E207FF0BC020E309
:10048A00006102FF07C00B7F4A930E946A03503043
:10049A0009F051500E945D03503009F0515031501B
:1004AA00A885B985129708F0B5CF00FF08C050306B
:1004BA0031F05150E0E2EA930E946A03F8CF10E06B
:1004CA00E0CEAC85BD850E94CA030E94DE03649615
:1004DA000895FF92F82E26970E94D9030E9482035C
:1004EA00309719F4EFEFFFEF23C0DE0116960E9452
:1004FA00A1038D010E948203EE83FF83E0E0E88777
:10050A00E987DE011A960E94A1030E94CA03FA93A0
:10051A00EA931A930A93EAEFF0E0FA93EA93DE0178
:10052A001A96A3DE9F01AE81BF81E0E0EC93F90148
:10053A000E94E0032A96FF900895AA93E5B3EF700C
:10054A00AE2FE881E07FEA2BE5BB8DE08A95F1F7D3
:10055A00AA9A8DE08A95F1F7AA988DE08A95F1F723
:10056A0077C0AA93A881E9DFE881E295E883A881A8
:10057A00E4DF85E88A95F1F76BC0AA93E881F0E099
:10058A00E05AFD4FE081A981AE0FEBDF5980488028
:10059A0022960895A2E00E948903ACE0E2DFA1E07E
:1005AA000E948903E0E04E2E5E2E0895AA93A88148
:1005BA00AA3011F0571448F0E0E0EA934394A42DCE
:1005CA00DCDFA881AA3009F443C05394A89AA88111
:1005DA00C8DFA8983DC0BA93AA931A93A981BA8191
:1005EA00ED91A983BA831E2FE03019F0A12FDEDF27
:1005FA00F5CF188123960895AA93E4B3E06FE4BB7C
:10060A00A29AA09AA19AAA98A898A9987880E8810B
:10061A00E058E0936202E881E054E0936302A4E1C7
:10062A00B0E00E9497030E948F030E948F030E94EA
:10063A008F03A0E282DF88EC90E00197F1F7A8E24D
:10064A0090DFA4E08EDFA5E88CDFA6E08ADFA2DFD8
:10065A0021960895BA93AA93A991B991EE27FF27F3
:10066A006D91662311F03196FBCF0895BA93AA9340
:10067A00AA27BB27E991F9910590002011F011965C
:10068A00FBCFFD010895FA93EA93E12FFF2766272E
:10069A0077270E94D203E02FFF27662777270E9439
:1006AA00D20388E00E946E022C96DE010C94F002BE
:1006BA002A93AD85BE85EF85F88909950895E8895D
:1006CA00F9893497E88BF98B0895AD85BE85EF8556
:1006DA00F88909950895A889B98914960E94CA03C8
:1006EA00EE83FF83AE81BF810895A889B9891496E4
:1006FA000E94CA03EA87FB870895DE011C960E94BE
:10070A00A1030E94CA0308950E94B602A3E0B0E0C2
:10071A000C949703A0E30E94A20288EC90E0019750
:10072A00F1F70895109639F080ED97E00197F1F707
:10073A00A8951197C9F708950024AF0DB01D089523
:10074A00F195E195F04008950024112490E1AA0F53
:10075A00BB1F001C111C0E1A1F0A18F40E0E1F1EB6
:10076A0001C0A1609A9599F7FD01D0010895E89416
:10077A00B7FF04C0A095B09511966894F7FDE0DF25
:10078A00E3DFFD010EF4DCDF0895ED91FC91119792
:10079A0008950590F491E02D08957A936A93FA9357
:1007AA00EA9308955A934A933A932A931A930A9387
:1007BA0008955D814C813B812A81198108810895C0
:00000001FF
