:100000000C9457000C9400000C9400000C94000019
:100010000C9400000C9400000C9400000C94B500AB
:100020000C9400000C9400000C9497000C940000B9
:100030000C94CA000C9400000C9400000C94000076
:100040000C9400000C9400000C940B010C94000024
:100050000C9400001027E80364000A00010000105F
:10006000000110000100000000000000010000007D
:1000700016002C00733D2564743D256420643D25E5
:10008000642074656D313D256474656D323D256471
:10009000000080C00A0004006600010062027000D7
:1000A00001006302720002008B0292000000F894CB
:1000B000EE27ECBBF1E0FBBFEBBFE5BF8DE0A2E0BC
:1000C000BB27ED938A95E9F780E098E0A0E6ED93F1
:1000D0000197E9F7E4E9F0E085919591009761F0E7
:1000E000A591B59105901590BF01F00105900D9275
:1000F0000197E1F7FB01F0CFEFE5EDBFE8E0EEBFE0
:10010000C0E6D2E00C944001A0E0ACD02F010E94E8
:1001100004042F01A8ECB0E00E948604A3E0A2D062
:100120003F010E9404043F010895AFB808950E9462
:100130002704A4E8B2E00E943504A0918402B091A3
:100140008502A83EE3E0BE0779F40E943B04A6E8DE
:10015000B2E00E943504A0918602B0918702159703
:1001600019F4D2DF0E9441046FC00E942704A0E668
:10017000B2E00E943504A0916002B0916102A33EFA
:10018000E3E0BE0731F4E0E0E0936002E093610257
:10019000CCDF5AC00E942704EFB1E0938A02E091BD
:1001A0008802F09189023097F9F4E0916302A091FE
:1001B0008A02EA17C1F4D501E5E0F0E00E94DF050C
:1001C000309769F4E1E0F0E0E0938802F09389026F
:1001D000A4E6B0E00E948604E0916202EFB9F50166
:1001E00031965F01319716C0E0E0E0938802E0931A
:1001F0008902C0908A02DD24F6010E94C7050E9490
:10020000F604A0E0B0E08AE292E40E9424050E9495
:10021000BD04E3BD19C00E942704979A082C092841
:1002200059F4E1E0F0E04F010E943B040E944104D8
:100230006BDFEBE0E3BF08C0E8E0E3BF882499246C
:100240000E943B040E944104E991EFBFF991E991BA
:10025000B991A9919991899179916991F9901990A0
:1002600009901895AA93E881E7B98BE18A95F1F78F
:10027000369A349BFECF349AE4B1F5B10C94470220
:10028000E0E0EABBEBBBE0E4E7BBE0E0E8BBE4BBFB
:10029000E5BBE0E8E1BBE0E0E2BBE8E0E3BFE0E0D3
:1002A000E2BFECE7ECBFE0E0EFBDE9E0EEBDE0E08F
:1002B000EDBDECBDE7BDE6BDEFE1EBBDEFE3EABDB3
:1002C000E0E0E9BDE8BDE2BDECE6E5BDE0E0E4BDAF
:1002D000E3BDE2E1E9BFE0E0E5BFE4BFEAB9E8E0A1
:1002E000E8B9E0E0E7B9E4E8E6B9E0E0E0BFE0EC77
:1002F000EDB9E0E0EEB9EEB1EFB1E0E0E6BFA0E1CC
:1003000099D07894E0E0EA93A0E044D0E4E6F2E00B
:10031000FA93EA93E4E7F0E0FA93EA93F6010E9495
:100320004704F5010E944704E0918A02FF276627EF
:1003300077270E94F505F2010E944704F3010E940D
:10034000470484E10E94B7036896A4E6B2E061D056
:10035000D9CFFFCFAA93E5B3EF70AE2FE881E07F4E
:10036000EA2BE5BB8DE08A95F1F7AA9A8DE08A9594
:10037000F1F7AA988DE08A95F1F789C0AA93A88130
:10038000E9DFE881E295E883A881E4DF85E88A95E2
:10039000F1F77DC0AA93E881F0E0E557FD4FE081D9
:1003A000A981AE0FEBDFE981E0938F02E881E09352
:1003B000900222960895A2E00E944C04ACE0DEDF99
:1003C000A1E00E944C04E0E0E0939002E0938F02F1
:1003D0000895AA93A881AA3031F0E0919102A091EA
:1003E0008F02AE1760F0E0E0EA93A0919002AF5F59
:1003F000A0939002CFDFA881AA3009F448C0E09111
:100400008F02EF5FE0938F02A89AA881B7DFA898C8
:100410003EC0BA93AA931A93A981BA81ED91A98398
:10042000BA831E2FE03019F0A12FD3DFF5CF18814A
:1004300023960895AA93E4B3E06FE4BBA29AA09A2E
:10044000A19AAA98A898A998E881E0939102E05807
:10045000E0938D02E881E054E0938E02A4E1B0E0E5
:100460000E9486040E9452040E9452040E94520478
:10047000A0E270DF88EC90E00197F1F7A8E27EDF60
:10048000A4E07CDFA5E87ADFA6E078DF94DF2196A0
:100490000895BA93AA931A930A93AA81BB811296DC
:1004A0000E94ED05309729F1AA81BB8114960E9424
:1004B000ED058F01309761F00230E0E01E0780F01B
:1004C000F80131978F01AA81BB811496ED93FC93BB
:1004D000AA81BB8112960E9435043197AC81A0831A
:1004E000AA81BB810E94ED05FF2312F00E94350412
:1004F00006C0AA81BB81EFEFFFEFED93FC9319815A
:10050000088125960895BA93AA9326970E94FA0522
:1005100010E0AC85BD85E0E0F0E0ED93FC93EA8966
:10052000FB893196EA8BFB8B3197E4912E2FE030DB
:1005300009F415C1E12FE03039F4253211F411E04E
:1005400002C00E945A040AC1E130A9F4253219F40C
:100550000E945A0402C112E040E000E02D3211F482
:1005600001E0FCC02B3211F44BE2F8C0203211F450
:1005700040E2F4C002C0E23039F450E013E020332E
:1005800011F40068EBC003C0E33009F0E7C020338A
:1005900010F02A3308F007C0AAE05A9F502DE22F2E
:1005A000E0535E0FDBC0E22FE33649F40E946104A2
:1005B000E889F989A481AA930E946704CEC0E33731
:1005C00041F40E9461040E946D040E94EB031E2FFF
:1005D0000AC0E03761F40E9461040E946D040E9429
:1005E000F7031E2F086002600F7730E034C0E43656
:1005F00011F0E93611F4046002C0E53731F4E4E5A6
:10060000F0E0EE83FF8315E00CC0E83511F40860DC
:1006100003C0E83709F0A1C0EEE5F0E0EE83FF8308
:1006200014E002FF14C00E9461040E947704AB85AD
:10063000AA233AF4EA85FB850E94BB05EA87FB877B
:100640004DE2403011F01F5F01C00B7F04C00E94DB
:1006500061040E94770400FD11C0151778F407FFAC
:1006600008C002FF04C00B7F242F115001C020E3FB
:1006700001C020E20E945A045150EFCF312F01FFF8
:1006800017C03030A1F003FF06C0EE81FF81259135
:10069000EE83FF8305C0AE81BF812D91AE83BF8302
:1006A0000E945A04503009F051503150EACF4BC0EB
:1006B00020E3EE81FF810E94F105E887F987EE8152
:1006C000FF813296EE83FF83E885F985AA85BB8595
:1006D000AE17BF0750F02F5FA885B985EA85FB8567
:1006E000EA1BFB0BEA87FB87EFCF2A3328F003FFD7
:1006F00002C0295F01C0295D04FD1AC0213320F426
:10070000A885B985119709F409C0531710F000FFA7
:1007100001C013C020E207FF0BC020E3006102FF0D
:1007200007C00B7F4A930E946704503009F0515074
:100730000E945A04503009F051503150A885B985B3
:10074000129708F0B5CF00FF08C0503031F051507B
:10075000E0E2EA930E946704F8CF10E0E0CEAC85B7
:10076000BD850E94ED050E94010664960895FF92E2
:10077000F82E26970E94FC050E947F04309719F4FA
:10078000EFEFFFEF23C0DE0116960E94B7058D0143
:100790000E947F04EE83FF83E0E0E887E987DE01C3
:1007A0001A960E94B7050E94ED05FA93EA931A93F0
:1007B0000A93E9E4F2E0FA93EA93DE011A96A3DEE3
:1007C0009F01AE81BF81E0E0EC93F9010E94030636
:1007D0002A96FF900895BA93AA93A991B991EE270A
:1007E000FF276D91662311F03196FBCF0895BA93E0
:1007F000AA93AA27BB27E991F9910590002011F04F
:100800001196FBCFFD0108950E94C7050E94F604D2
:10081000A0E0B0E080EC9FE30E942405DF01CB0163
:10082000E0E0F0EC6FE774E40E947205A0E0B0E055
:1008300086E193E40E942405DF01CB01E0E0F0E0D3
:1008400060EC7FE30E9472050E94BF0408950A9243
:100850001A92FA926A937A938A939A93AA93BA9382
:10086000EA93FA93EFB7EA930895ED91FD913196EB
:10087000FE93EE930895E0E0E0938402E093850216
:100880000895E0E0E0938602E093870208950E94D5
:10089000C7050E94F50508950E94BE01A3E0B0E0DF
:1008A0000C948604A0E30E94AA0188EC90E00197D2
:1008B000F1F708952A93AD85BE85EF85F8890995EE
:1008C0000895E889F9893497E88BF98B0895AD8507
:1008D000BE85EF85F88909950895A889B989149688
:1008E0000E94ED05EE83FF83AE81BF810895A88944
:1008F000B98914960E94ED05EA87FB870895DE0109
:100900001C960E94B7050E94ED050895109639F0D7
:1009100080ED97E00197F1F7A8951197C9F7089531
:10092000552342F4503811F4E0FF04C03196691F9A
:10093000791F6BF050E8572711F45F9373C05F3F46
:1009400031F0660F000C57956795752F08955F93EA
:1009500000200AF073C06CC050E8192E1522880FD1
:10096000991F9527550F879550E8072E0522660F8A
:10097000771F7527550F67950895689401C0E8940F
:100980005F93F2DF703818F07F3F08F44BC056E1F8
:10099000571BAAF4519558300EF4593030F0EFEF50
:1009A000FFEF6FEF7FE777F91AC077275523B9F08C
:1009B000EE0FFF1F661F771F5A95D1F710C07727DC
:1009C000583028F0EF2FF62F672F5850F9CF5523C6
:1009D00031F076956795F795E7955A95D1F7002010
:1009E0000AF4CDD05F910895689401C0E8943097DF
:1009F00060407040B1F0002426F0772312F4009498
:100A0000BED0172E7EE1112032F07A95EE0FFF1F37
:100A1000661F111CF9CFEF2FF62F612D5F938ADF30
:100A20005F910895EE27FF27662777275F91089546
:100A3000EFEFFFEF6FE77FEF5F910895EFEFFFEFCD
:100A40006FE77FE75F9108955F9386DF703851F31A
:100A5000903841F301240894791F23F41CF30020FB
:100A60003AF3ECCF0F921F932F933F934F9311279D
:100A700022279927689FA0018F9F302D410D591F74
:100A80006B9F300D411D591F8E9F27D0BF9F25D0D2
:100A90006A9F23D0BE9F1DD0AF9F1BD0AE9F110D6C
:100AA000291F391F491F591FE32FF42F652F522F7C
:100AB0004F913F912F911F910F9066232AF0550F70
:100AC000EE1FFF1F661F02C073954BF229DF5F9177
:100AD0000895100D211D391F02C0200D311D491F21
:100AE000591F08955F9338DF703821F411200AF4FC
:100AF0009FCFA4CF903809F495CF01240894970B89
:100B00001BF4D4F30020F3CF792F1F932F933F933F
:100B10004F9311241127222733274427552790E28A
:100B2000AE17BF078607410730F0AE1BBF0B860B21
:100B3000410B089401C08894551F221F331F111CBC
:100B4000AA1FBB1F881F441F9A9551F7F901612DF9
:100B50004F913F912F911F91662332F0550FEE1F59
:100B6000FF1F661F7A9543F2DBDE5F910895002434
:100B7000AF0DB01D0895F195E195F0400895F09501
:100B800060957095E195FF4F6F4F7F4F08956F2FE0
:100B9000660F660B762F08950024112490E1AA0FAA
:100BA000BB1F001C111C0E1A1F0A18F40E0E1F1E6C
:100BB00001C0A1609A9599F7FD01D0010895E894CC
:100BC000B7FF04C0A095B09511966894F7FDD3DFE8
:100BD000E3DFFD010EF4CFDF0895ED91FC91119755
:100BE00008950590F491E02D08957A936A93FA930D
:100BF000EA9308955A934A933A932A931A930A933D
:100C000008955D814C813B812A8119810881089575
:00000001FF
