:060000000C9448000C9472
:1000060000000C9400000C9400000C9400000C946A
:1000160000000C9400000C9400000C9400000C945A
:1000260000000C9486000C9400000C9400000C94C4
:1000360000000C9400000C9400000C9400000C943A
:1000460000000C9400000C9400000C940000102793
:10005600E80364000A00010000100001100001001E
:100066000000000074313D25642074323D20256473
:100076000A20733D25642020000080C0040004008F
:1000860066000200600280000000F894EE27ECBBD8
:10009600F1E0FBBFEBBFE5BF8DE0A2E0BB27ED9330
:1000A6008A95E9F780E098E0A0E6ED930197E9F7F5
:1000B600E2E8F0E085919591009761F0A591B59100
:1000C60005901590BF01F00105900D920197E1F79B
:1000D600FB01F0CFEFE5EDBFE8E0EEBFC0E6D2E012
:1000E6000C94C500A0E03FD02F010E9468032F01A9
:1000F600A8ECB0E00E94CA03A3E035D03F010E94FD
:1001060068033F0108950A921A92FA926A937A93C3
:100116008A939A93AA93BA93EA93FA93EFB7EA93D8
:10012600F40131964F01E8EEF3E0E815F90569F4BC
:1001360088249924F50131965F01E5E0F0E0EA159F
:10014600FB0519F4CFDFAA24BB24E991EFBFF9918F
:10015600E991B991A9919991899179916991F990CA
:10016600199009901895AA93A097E8A1E7B98BE191
:100176008A95F1F7369A349BFECF349AE4B1F5B1FD
:10018600A1960895A097E0E0EABBEBBBE7BBE8BB0E
:10019600E4BBE5BBE1BBE2BBEBE0E3BFE0E0E2BF13
:1001A600ECE7ECBFE0E0EFBDEEBDEDBDECBDE7BDBD
:1001B600E6BDEBBDEABDE9BDE8BDE2BDE5BDE4BD1A
:1001C600E3BDE2E0E9BFE0E0E5BFE4BFEAB9E0E8AD
:1001D600E8B9E0E0E7B9E4E8E6B9E0E0E0BFEDB9A8
:1001E600E6BFA0E182D07894FE01FA93EA93EAE6AC
:1001F600F0E0FA93EA93F2010E948B03F3010E9466
:100206008B03F5010E948B038CE00E941B03609612
:10021600E0E0EA93A0E028D0DE0156D0A4EFB1E0FA
:100226000E94CA03E1CFFFCFAA93E5B3EF70AE2FCA
:10023600E881E07FEA2BE5BB8DE08A95F1F7AA9A83
:100246008DE08A95F1F7AA988DE08A95F1F77AC044
:10025600AA93A881E9DFE881E295E883A881E4DF33
:1002660085E88A95F1F76EC0AA93E881F0E0E05A36
:10027600FD4FE081A981AE0FEBDFD980C8802296C1
:100286000895A2E00E949003ACE0E2DFA1E00E94A4
:100296009003E0E0CE2EDE2E0895AA93A881AA3020
:1002A60021F0E0916402DE1648F0E0E0EA93C394A0
:1002B600AC2DDADFA881AA3009F444C0D394A89AF9
:1002C600A881C6DFA8983EC0BA93AA931A93A981BB
:1002D600BA81ED91A983BA831E2FE03019F0A12FC0
:1002E600DCDFF5CF188123960895AA93E4B3E06F77
:1002F600E4BBA29AA09AA19AAA98A898A998E8817C
:10030600E0936402E058E0936202E881E054E093EF
:100316006302A4E1B0E00E94CA030E9496030E9411
:1003260096030E949603A0E27FDF88EC90E0019797
:10033600F1F7A8E28DDFA4E08BDFA5E889DFA6E070
:1003460087DF9FDF21960895BA93AA931A930A939B
:10035600AA81BB8112960E941005309759F1AA8195
:10036600BB8114960E9410058F01309761F0023010
:10037600E0E01E0798F0F80131978F01AA81BB8152
:100386001496ED93FC93AA81BB811296ED91FD9193
:100396003196FE93EE933197AC81A083AA81BB81FF
:1003A6000E941005FF232AF0ED91FD913196FE93F0
:1003B600EE9306C0AA81BB81EFEFFFEFED93FC93AE
:1003C6001981088125960895BA93AA9326970E94C3
:1003D6001D0510E0AC85BD85E0E0F0E0ED93FC93F3
:1003E600EA89FB893196EA8BFB8B3197E4912E2FB4
:1003F600E03009F415C1E12FE03039F4253211F46B
:1004060011E002C00E949E030AC1E130A9F4253220
:1004160019F40E949E0302C112E040E000E02D3272
:1004260011F401E0FCC02B3211F44BE2F8C020328B
:1004360011F440E2F4C002C0E23039F450E013E0B7
:10044600203311F40068EBC003C0E33009F0E7C0C5
:10045600203310F02A3308F007C0AAE05A9F502D27
:10046600E22FE0535E0FDBC0E22FE33649F40E9431
:10047600A503E889F989A481AA930E94AB03CEC09B
:10048600E33741F40E94A5030E94B1030E944F0383
:100496001E2F0AC0E03761F40E94A5030E94B10333
:1004A6000E945B031E2F086002600F7730E034C0A5
:1004B600E43611F0E93611F4046002C0E53731F490
:1004C600E4E5F0E0EE83FF8315E00CC0E83511F4B7
:1004D600086003C0E83709F0A1C0EEE5F0E0EE835E
:1004E600FF8314E002FF14C00E94A5030E94BB0311
:1004F600AB85AA233AF4EA85FB850E94FF04EA87C6
:10050600FB874DE2403011F01F5F01C00B7F04C036
:100516000E94A5030E94BB0300FD11C0151778F4C5
:1005260007FF08C002FF04C00B7F242F115001C033
:1005360020E301C020E20E949E035150EFCF312FED
:1005460001FF17C03030A1F003FF06C0EE81FF8126
:100556002591EE83FF8305C0AE81BF812D91AE83C9
:10056600BF830E949E03503009F051503150EACFAC
:100576004BC020E3EE81FF810E941405E887F987CE
:10058600EE81FF813296EE83FF83E885F985AA85A1
:10059600BB85AE17BF0750F02F5FA885B985EA85E2
:1005A600FB85EA1BFB0BEA87FB87EFCF2A3328F094
:1005B60003FF02C0295F01C0295D04FD1AC0213373
:1005C60020F4A885B985119709F409C0531710F0CE
:1005D60000FF01C013C020E207FF0BC020E300614B
:1005E60002FF07C00B7F4A930E94AB03503009F00D
:1005F60051500E949E03503009F051503150A88549
:10060600B985129708F0B5CF00FF08C0503031F019
:100616005150E0E2EA930E94AB03F8CF10E0E0CE3F
:10062600AC85BD850E9410050E9424056496089538
:10063600FF92F82E26970E941F050E94C30330974B
:1006460019F4EFEFFFEF23C0DE0116960E94FB04BC
:100656008D010E94C303EE83FF83E0E0E887E9870C
:10066600DE011A960E94FB040E941005FA93EA9393
:100676001A930A93E7EAF1E0FA93EA93DE011A96EF
:10068600A3DE9F01AE81BF81E0E0EC93F9010E94F9
:1006960026052A96FF900895BA93AA93A991B9912F
:1006A600EE27FF276D91662311F03196FBCF089553
:1006B600BA93AA93AA27BB27E991F991059000203E
:1006C60011F01196FBCFFD0108950E940B050E94C3
:1006D6003A04A0E0B0E080EC9FE30E946804DF01EA
:1006E600CB01E0E0F0EC6FE774E40E94B604A0E012
:1006F600B0E086E193E40E946804DF01CB01E0E00C
:10070600F0E060EC7FE30E94B6040E9403040895C3
:100716000E940B050E94180508950E942B01A3E074
:10072600B0E00C94CA03A0E30E94170188EC90E0A5
:100736000197F1F708952A93AD85BE85EF85F8896F
:1007460009950895E889F9893497E88BF98B089516
:10075600AD85BE85EF85F88909950895A889B9897B
:1007660014960E941005EE83FF83AE81BF81089523
:10077600A889B98914960E941005EA87FB8708950F
:10078600DE011C960E94FB040E9410050895109637
:1007960039F080ED97E00197F1F7A8951197C9F721
:1007A6000895552342F4503811F4E0FF04C0319601
:1007B600691F791F6BF050E8572711F45F9373C0D8
:1007C6005F3F31F0660F000C57956795752F0895BA
:1007D6005F9300200AF073C06CC050E8192E1522F2
:1007E600880F991F9527550F879550E8072E0522E4
:1007F600660F771F7527550F67950895689401C092
:10080600E8945F93F2DF703818F07F3F08F44BC02E
:1008160056E1571BAAF4519558300EF4593030F072
:10082600EFEFFFEF6FEF7FE777F91AC077275523D2
:10083600B9F0EE0FFF1F661F771F5A95D1F710C04C
:100846007727583028F0EF2FF62F672F5850F9CF1B
:10085600552331F076956795F795E7955A95D1F733
:1008660000200AF4CDD05F910895689401C0E89401
:10087600309760407040B1F0002426F0772312F4E0
:100886000094BED0172E7EE1112032F07A95EE0F3D
:10089600FF1F661F111CF9CFEF2FF62F612D5F93F7
:1008A6008ADF5F910895EE27FF27662777275F91F6
:1008B6000895EFEFFFEF6FE77FEF5F910895EFEF9A
:1008C600FFEF6FE77FE75F9108955F9386DF7038EC
:1008D60051F3903841F301240894791F23F41CF353
:1008E60000203AF3ECCF0F921F932F933F934F9331
:1008F600112722279927689FA0018F9F302D410D30
:10090600591F6B9F300D411D591F8E9F27D0BF9FCA
:1009160025D06A9F23D0BE9F1DD0AF9F1BD0AE9F10
:10092600110D291F391F491F591FE32FF42F652F5A
:10093600522F4F913F912F911F910F9066232AF0CE
:10094600550FEE1FFF1F661F02C073954BF229DF7E
:100956005F910895100D211D391F02C0200D311D14
:10096600491F591F08955F9338DF703821F411200D
:100976000AF49FCFA4CF903809F495CF01240894A8
:10098600970B1BF4D4F30020F3CF792F1F932F93EB
:100996003F934F93112411272227332744275527A6
:1009A60090E2AE17BF078607410730F0AE1BBF0BBC
:1009B600860B410B089401C08894551F221F331FD4
:1009C600111CAA1FBB1F881F441F9A9551F7F901D6
:1009D600612D4F913F912F911F91662332F0550F54
:1009E600EE1FFF1F661F7A9543F2DBDE5F910895C7
:1009F6000024AF0DB01D0895F195E195F0400895DE
:100A0600F09560957095E195FF4F6F4F7F4F089574
:100A16006F2F660F660B762F0895ED91FC91119757
:100A260008950590F491E02D08957A936A93FA93C8
:100A3600EA9308955A934A933A932A931A930A93F8
:100A460008955D814C813B812A8119810881089531
:00000001FF
