:100000000C9457000C9400000C9400000C94000019
:100010000C9400000C9400000C9400000C94B900A7
:100020000C9400000C9400000C949B000C940000B5
:100030000C94EE000C9400000C9400000C94000052
:100040000C9400000C9400000C9427010C94000008
:100050000C9400001027E80364000A00010000105F
:10006000000110000100000000000000010000007D
:1000700016002C00733D2564743D256420643D25E5
:10008000642074656D313D256474656D323D256471
:10009000000080C00A0004006600010062027000D7
:1000A00001006302720002008F0292000000F894C7
:1000B000EE27ECBBF1E0FBBFEBBFE5BF8DE0A2E0BC
:1000C000BB27ED938A95E9F780E098E0A0E6ED93F1
:1000D0000197E9F7E4E9F0E085919591009761F0E7
:1000E000A591B59105901590BF01F00105900D9275
:1000F0000197E1F7FB01F0CFEFE5EDBFE8E0EEBFE0
:10010000C0E6D2E00C945D01A0E0C9D02F010E94AE
:1001100025042F01A8ECB0E00E94AF04A3E0BFD0FB
:100120003F010E9425043F010895F201E619F709F5
:100130005F01AFB808950E944804A4E8B2E00E94AD
:100140005604A0918402B0918502A83EE3E0BE0768
:1001500079F40E945C04A6E8B2E00E945604A091E3
:100160008602B0918702159719F4CEDF0E946204CF
:1001700088C00E944804A0E6B2E00E945604A09104
:100180006002B0916102A83EE3E0BE0731F5A8E845
:10019000B2E00E945604E0918A02F0918B023097FF
:1001A00079F4A0918802B0918902129741F40E94DB
:1001B0006804E1E0F0E0E0938A02F0938B0208C06B
:1001C000A0918802B0918902139711F40E946804EB
:1001D000E0E0E0936002E093610253C00E944804B3
:1001E000EFB1E0938E02E0918C02F0918D02309796
:1001F000B9F4E0916302A0918E02EA1781F40A2C0F
:100200000B2869F0E1E0F0E0E0938C02F0938D02BE
:10021000AAE0B0E00E94AF04E0916202EFB916C01C
:10022000E0E0E0938C02E0938D02C0908E02DD242A
:10023000F6010E94F0050E941F05A0E0B0E08AE2EE
:1002400092E40E944D050E94E604E3BD1AC00E949C
:100250004804979A082C092859F4E1E0F0E04F018E
:100260000E945C040E9462044FDFEBE0E3BF09C020
:10027000E8E0E3BF882499240E945C040E946204A1
:1002800043DFE991EFBFF991E991B991A991999172
:10029000899179916991F990199009901895AA938B
:1002A000E881E7B98BE18A95F1F7369A349BFECF66
:1002B000349AE4B1F5B10C946802E0E0EABBEBBB20
:1002C000E0E4E7BBE0E0E8BBE4BBE5BBE0E8E1BBC2
:1002D000E0E0E2BBE8E0E3BFE0E0E2BFECE7ECBF78
:1002E000E0E0EFBDE9E0EEBDE0E0EDBDECBDE7BD77
:1002F000E6BDEFE1EBBDEFE3EABDE0E0E9BDE8BD5F
:10030000E2BDECE6E5BDE0E0E4BDE3BDE2E1E9BF6E
:10031000E0E0E5BFE4BFEAB9E8E0E8B9E0E0E7B96A
:10032000E4E8E6B9E0E0E0BFE0ECEDB9E0E0EEB92A
:10033000EEB1EFB1E0E0E6BFA0E19DD07894E0E05F
:10034000EA93A0E048D0E4E6F2E0FA93EA93E4E727
:10035000F0E0FA93EA93F6010E947004F5010E941E
:100360007004E0918E02FF27662777270E94FD0523
:10037000F2010E947004F3010E94700484E10E9463
:10038000D8036896A4E6B2E065D0A2E3B0E00E948C
:10039000AF04D5CFFFCFAA93E5B3EF70AE2FE881BE
:1003A000E07FEA2BE5BB8DE08A95F1F7AA9A8DE014
:1003B0008A95F1F7AA988DE08A95F1F789C0AA93FA
:1003C000A881E9DFE881E295E883A881E4DF85E898
:1003D0008A95F1F77DC0AA93E881F0E0E157FD4FDF
:1003E000E081A981AE0FEBDFE981E0939302E88120
:1003F000E093940222960895A2E00E947504ACE076
:10040000DEDFA1E00E947504E0E0E0939402E09357
:1004100093020895AA93A881AA3031F0E091950241
:10042000A0919302AE1760F0E0E0EA93A0919402ED
:10043000AF5FA0939402CFDFA881AA3009F448C02F
:10044000E0919302EF5FE0939302A89AA881B7DF4F
:10045000A8983EC0BA93AA931A93A981BA81ED9144
:10046000A983BA831E2FE03019F0A12FD3DFF5CF77
:10047000188123960895AA93E4B3E06FE4BBA29A8F
:10048000A09AA19AAA98A898A998E881E0939502C1
:10049000E058E0939102E881E054E0939202A4E1F5
:1004A000B0E00E94AF040E947B040E947B040E9483
:1004B0007B04A0E270DF88EC90E00197F1F7A8E2FE
:1004C0007EDFA4E07CDFA5E87ADFA6E078DF94DFBA
:1004D00021960895BA93AA931A930A93AA81BB818D
:1004E00012960E94F505309729F1AA81BB811496D6
:1004F0000E94F5058F01309761F00230E0E01E07A1
:1005000080F0F80131978F01AA81BB811496ED9399
:10051000FC93AA81BB8112960E9456043197AC814C
:10052000A083AA81BB810E94F505FF2312F00E94DF
:10053000560406C0AA81BB81EFEFFFEFED93FC9359
:100540001981088125960895BA93AA9326970E9447
:10055000020610E0AC85BD85E0E0F0E0ED93FC9391
:10056000EA89FB893196EA8BFB8B3197E4912E2F38
:10057000E03009F415C1E12FE03039F4253211F4EF
:1005800011E002C00E9483040AC1E130A9F42532BF
:1005900019F40E94830402C112E040E000E02D3211
:1005A00011F401E0FCC02B3211F44BE2F8C0203210
:1005B00011F440E2F4C002C0E23039F450E013E03C
:1005C000203311F40068EBC003C0E33009F0E7C04A
:1005D000203310F02A3308F007C0AAE05A9F502DAC
:1005E000E22FE0535E0FDBC0E22FE33649F40E94B6
:1005F0008A04E889F989A481AA930E949004CEC054
:10060000E33741F40E948A040E9496040E940C047D
:100610001E2F0AC0E03761F40E948A040E949604EB
:100620000E9418041E2F086002600F7730E034C06B
:10063000E43611F0E93611F4046002C0E53731F414
:10064000E4E5F0E0EE83FF8315E00CC0E83511F43B
:10065000086003C0E83709F0A1C0EEE5F0E0EE83E2
:10066000FF8314E002FF14C00E948A040E94A004C9
:10067000AB85AA233AF4EA85FB850E94E405EA8764
:10068000FB874DE2403011F01F5F01C00B7F04C0BB
:100690000E948A040E94A00400FD11C0151778F47E
:1006A00007FF08C002FF04C00B7F242F115001C0B8
:1006B00020E301C020E20E9483045150EFCF312F8C
:1006C00001FF17C03030A1F003FF06C0EE81FF81AB
:1006D0002591EE83FF8305C0AE81BF812D91AE834E
:1006E000BF830E948304503009F051503150EACF4B
:1006F0004BC020E3EE81FF810E94F905E887F9876E
:10070000EE81FF813296EE83FF83E885F985AA8525
:10071000BB85AE17BF0750F02F5FA885B985EA8566
:10072000FB85EA1BFB0BEA87FB87EFCF2A3328F018
:1007300003FF02C0295F01C0295D04FD1AC02133F7
:1007400020F4A885B985119709F409C0531710F052
:1007500000FF01C013C020E207FF0BC020E30061CF
:1007600002FF07C00B7F4A930E949004503009F0AB
:1007700051500E948304503009F051503150A885E7
:10078000B985129708F0B5CF00FF08C0503031F09E
:100790005150E0E2EA930E949004F8CF10E0E0CEDE
:1007A000AC85BD850E94F5050E94090664960895F2
:1007B000FF92F82E26970E9404060E94A804309704
:1007C00019F4EFEFFFEF23C0DE0116960E94E0055B
:1007D0008D010E94A804EE83FF83E0E0E887E987AB
:1007E000DE011A960E94E0050E94F505FA93EA934D
:1007F0001A930A93EAE6F2E0FA93EA93DE011A9674
:10080000A3DE9F01AE81BF81E0E0EC93F9010E947D
:100810000B062A96FF900895BA93AA93A991B991CD
:10082000EE27FF276D91662311F03196FBCF0895D7
:10083000BA93AA93AA27BB27E991F99105900020C2
:1008400011F01196FBCFFD0108950E94F0050E9462
:100850001F05A0E0B0E080EC9FE30E944D05DF01A2
:10086000CB01E0E0F0EC6FE774E40E949B05A0E0B0
:10087000B0E086E193E40E944D05DF01CB01E0E0AA
:10088000F0E060EC7FE30E949B050E94E80408957D
:100890000A921A92FA926A937A938A939A93AA93F3
:1008A000BA93EA93FA93EFB7EA930895ED91FD9125
:1008B0003196FE93EE930895E0E0E0938402E09396
:1008C00085020895E0E0E0938602E09387020895B0
:1008D0000E949500E0E0E0938802E0938902089589
:1008E0000E94F0050E94FD0508950E94DF01A3E02B
:1008F000B0E00C94AF04A0E30E94CB0188EC90E040
:100900000197F1F708952A93AD85BE85EF85F889A3
:1009100009950895E889F9893497E88BF98B08954A
:10092000AD85BE85EF85F88909950895A889B989AF
:1009300014960E94F505EE83FF83AE81BF81089572
:10094000A889B98914960E94F505EA87FB8708955E
:10095000DE011C960E94E0050E94F50508951096A0
:1009600039F080ED97E00197F1F7A8951197C9F755
:100970000895552342F4503811F4E0FF04C0319635
:10098000691F791F6BF050E8572711F45F9373C00C
:100990005F3F31F0660F000C57956795752F0895EE
:1009A0005F9300200AF073C06CC050E8192E152226
:1009B000880F991F9527550F879550E8072E052218
:1009C000660F771F7527550F67950895689401C0C6
:1009D000E8945F93F2DF703818F07F3F08F44BC063
:1009E00056E1571BAAF4519558300EF4593030F0A7
:1009F000EFEFFFEF6FEF7FE777F91AC07727552307
:100A0000B9F0EE0FFF1F661F771F5A95D1F710C080
:100A10007727583028F0EF2FF62F672F5850F9CF4F
:100A2000552331F076956795F795E7955A95D1F767
:100A300000200AF4CDD05F910895689401C0E89435
:100A4000309760407040B1F0002426F0772312F414
:100A50000094BED0172E7EE1112032F07A95EE0F71
:100A6000FF1F661F111CF9CFEF2FF62F612D5F932B
:100A70008ADF5F910895EE27FF27662777275F912A
:100A80000895EFEFFFEF6FE77FEF5F910895EFEFCE
:100A9000FFEF6FE77FE75F9108955F9386DF703820
:100AA00051F3903841F301240894791F23F41CF387
:100AB00000203AF3ECCF0F921F932F933F934F9365
:100AC000112722279927689FA0018F9F302D410D64
:100AD000591F6B9F300D411D591F8E9F27D0BF9FFF
:100AE00025D06A9F23D0BE9F1DD0AF9F1BD0AE9F45
:100AF000110D291F391F491F591FE32FF42F652F8F
:100B0000522F4F913F912F911F910F9066232AF002
:100B1000550FEE1FFF1F661F02C073954BF229DFB2
:100B20005F910895100D211D391F02C0200D311D48
:100B3000491F591F08955F9338DF703821F4112041
:100B40000AF49FCFA4CF903809F495CF01240894DC
:100B5000970B1BF4D4F30020F3CF792F1F932F931F
:100B60003F934F93112411272227332744275527DA
:100B700090E2AE17BF078607410730F0AE1BBF0BF0
:100B8000860B410B089401C08894551F221F331F08
:100B9000111CAA1FBB1F881F441F9A9551F7F9010A
:100BA000612D4F913F912F911F91662332F0550F88
:100BB000EE1FFF1F661F7A9543F2DBDE5F910895FB
:100BC0000024AF0DB01D0895F195E195F040089512
:100BD000F09560957095E195FF4F6F4F7F4F0895A9
:100BE0006F2F660F660B762F0895ED91FC9111978C
:100BF00008950590F491E02D08957A936A93FA93FD
:100C0000EA9308955A934A933A932A931A930A932C
:100C100008955D814C813B812A8119810881089565
:00000001FF
