:0C0000000C9450000C9400000C940000C4
:10000C000C9400000C9400000C9400000C94000064
:10001C000C947F000C9400000C9400000C940000D5
:10002C000C9400000C94A7000C9400000C9400009D
:10003C000C9400000C9400000C9400000C94000034
:10004C000C9400000C9400001027E80364000A00D4
:10005C000100001000011000010001000000000070
:10006C002C16000074656D703D25642073706565F9
:10007C00643D256420646174613D2564202020204A
:10008C002020200080C00A000400660002008102CB
:10009C0090000000F894EE27ECBBF1E0FBBFEBBF47
:1000AC00E5BF8DE0A2E0BB27ED938A95E9F780E0F0
:1000BC0098E0A0E6ED930197E9F7E2E9F0E085918D
:1000CC009591009761F0A591B59105901590BF01A0
:1000DC00F00105900D920197E1F7FB01F0CFEFE5F0
:1000EC00EDBFE8E0EEBFC0E6D2E00C94D200AFB8B2
:1000FC0008950E949203F40131964F01E8EEF3E06B
:10010C00E815F90519F488249924F1DF37C0BA935E
:10011C00AA93A881B981599724F0E6E0F0E00C94F9
:10012C000903E881F9810E94D6040E944A04A0E0E8
:10013C00B0E080E89EE30E9478040E9413040C94C3
:10014C0009030E949203EFB1E09380020C2C0D285E
:10015C0099F4609080027724E03069F0E1E0F0E0FF
:10016C006F01A0918002BB27D2DF2F01A6E9B0E07E
:10017C000E94DA034FB802C0CC24DD24E991EFBF12
:10018C00F991E991B991A991999189917991699193
:10019C00F990199009901895E0E0EABBEBBBE0EB05
:1001AC00E7BBE0E0E8BBE4BBE5BBE1BBE2BBE3BF24
:1001BC00E2BFECBFEFBDE9E0EEBDE0E0EDBDECBDB4
:1001CC00E7BDE6BDEFE1EBBDEFE3EABDE0E0E9BD85
:1001DC00E8BDE2BDE5BDE4BDE3BDE0E1E9BFE0E0C3
:1001EC00E5BFE4BFEAB9E0E8E8B9E0E0E0BFE6B9B2
:1001FC00E1EDEDB9E0E0EEB9EEB1EFB1E0E0E6BF74
:10020C00A0E10E944A037894E0E0EA93A0E00E9407
:10021C00FA02E0E6F2E0FA93EA93E0E7F0E0FA9310
:10022C00EA93F3010E94D6040E94E304F2010E94B7
:10023C00D6040E94E304E0918002FF27662777270B
:10024C000E94E3048CE00E94A6026096A0E6B2E055
:10025C000E943903D9CFFFCFBA93AA931A930A936A
:10026C00AA81BB8112960E94DB04309759F1AA81B6
:10027C00BB8114960E94DB048F01309761F0023031
:10028C00E0E01E0798F0F80131978F01AA81BB813D
:10029C001496ED93FC93AA81BB811296ED91FD917E
:1002AC003196FE93EE933197AC81A083AA81BB81EA
:1002BC000E94DB04FF232AF0ED91FD913196FE9311
:1002CC00EE9306C0AA81BB81EFEFFFEFED93FC9399
:1002DC001981088125960895BA93AA9326970E94AE
:1002EC00E80410E0AC85BD85E0E0F0E0ED93FC9314
:1002FC00EA89FB893196EA8BFB8B3197E4912E2F9F
:10030C00E03009F415C1E12FE03039F4253211F455
:10031C0011E002C00E94A0030AC1E130A9F4253209
:10032C0019F40E94A00302C112E040E000E02D325B
:10033C0011F401E0FCC02B3211F44BE2F8C0203276
:10034C0011F440E2F4C002C0E23039F450E013E0A2
:10035C00203311F40068EBC003C0E33009F0E7C0B0
:10036C00203310F02A3308F007C0AAE05A9F502D12
:10037C00E22FE0535E0FDBC0E22FE33649F40E941C
:10038C00A703E889F989A481AA930E94AD03CEC082
:10039C00E33741F40E94A7030E94B3030E94790340
:1003AC001E2F0AC0E03761F40E94A7030E94B3031A
:1003BC000E9485031E2F086002600F7730E034C066
:1003CC00E43611F0E93611F4046002C0E53731F47B
:1003DC00E4E5F0E0EE83FF8315E00CC0E83511F4A2
:1003EC00086003C0E83709F0A1C0EEE5F0E0EE8349
:1003FC00FF8314E002FF14C00E94A7030E94BD03F8
:10040C00AB85AA233AF4EA85FB850E94CA04EA87E5
:10041C00FB874DE2403011F01F5F01C00B7F04C021
:10042C000E94A7030E94BD0300FD11C0151778F4AC
:10043C0007FF08C002FF04C00B7F242F115001C01E
:10044C0020E301C020E20E94A0035150EFCF312FD6
:10045C0001FF17C03030A1F003FF06C0EE81FF8111
:10046C002591EE83FF8305C0AE81BF812D91AE83B4
:10047C00BF830E94A003503009F051503150EACF95
:10048C004BC020E3EE81FF810E94DF04E887F987EF
:10049C00EE81FF813296EE83FF83E885F985AA858C
:1004AC00BB85AE17BF0750F02F5FA885B985EA85CD
:1004BC00FB85EA1BFB0BEA87FB87EFCF2A3328F07F
:1004CC0003FF02C0295F01C0295D04FD1AC021335E
:1004DC0020F4A885B985119709F409C0531710F0B9
:1004EC0000FF01C013C020E207FF0BC020E3006136
:1004FC0002FF07C00B7F4A930E94AD03503009F0F6
:10050C0051500E94A003503009F051503150A88531
:10051C00B985129708F0B5CF00FF08C0503031F004
:10052C005150E0E2EA930E94AD03F8CF10E0E0CE28
:10053C00AC85BD850E94DB040E94EF04649608958F
:10054C00FF92F82E26970E94EA040E94C50330976A
:10055C0019F4EFEFFFEF23C0DE0116960E94C604DC
:10056C008D010E94C503EE83FF83E0E0E887E987F5
:10057C00DE011A960E94C6040E94DB04FA93EA93E9
:10058C001A930A93E2E3F1E0FA93EA93DE011A96E6
:10059C00A3DE9F01AE81BF81E0E0EC93F9010E94E4
:1005AC00F1042A96FF900895AA93E5B3EF70AE2F4D
:1005BC00E881E07FEA2BE5BB8DE08A95F1F7AA9AFA
:1005CC008DE08A95F1F7AA988DE08A95F1F789C0AC
:1005DC00AA93A881E9DFE881E295E883A881E4DFAA
:1005EC0085E88A95F1F77DC0AA93E881F0E0EF5792
:1005FC00FD4FE081A981AE0FEBDFE981E09385022D
:10060C00E881E093860222960895A2E00E94CC0332
:10061C00ACE0DEDFA1E00E94CC03E0E0E0938602D8
:10062C00E09385020895AA93A881AA3031F0E09155
:10063C008702A0918502AE1760F0E0E0EA93A091EA
:10064C008602AF5FA0938602CFDFA881AA3009F49F
:10065C0048C0E0918502EF5FE0938502A89AA881DB
:10066C00B7DFA8983EC0BA93AA931A93A981BA810E
:10067C00ED91A983BA831E2FE03019F0A12FD3DF9F
:10068C00F5CF188123960895AA93E4B3E06FE4BBE9
:10069C00A29AA09AA19AAA98A898A998E881E093FE
:1006AC008702E058E0938302E881E054E0938402EF
:1006BC00A4E1B0E00E94DA030E94D2030E94D203AC
:1006CC000E94D203A0E270DF88EC90E00197F1F772
:1006DC00A8E27EDFA4E07CDFA5E87ADFA6E078DF85
:1006EC0094DF21960895BA93AA93A991B991EE2714
:1006FC00FF276D91662311F03196FBCF0895BA93C5
:10070C00AA93AA27BB27E991F9910590002011F033
:10071C001196FBCFFD0108950A921A92FA926A93F0
:10072C007A938A939A93AA93BA93EA93FA93EFB72C
:10073C00EA9308952A93AD85BE85EF85F8890995CE
:10074C000895E889F9893497E88BF98B0895AD857C
:10075C00BE85EF85F88909950895A889B9891496FD
:10076C000E94DB04EE83FF83AE81BF810895A889CC
:10077C00B98914960E94DB04EA87FB870895DE0191
:10078C001C960E94C6040E94DB0408950E94EE028F
:10079C00A3E0B0E00C94DA03A0E30E94DA0288EC48
:1007AC0090E00197F1F70895109639F080ED97E0FD
:1007BC000197F1F7A8951197C9F70895552342F4BD
:1007CC00503811F4E0FF04C03196691F791F6BF0AB
:1007DC0050E8572711F45F9373C05F3F31F0660FF9
:1007EC00000C57956795752F08955F9300200AF0BC
:1007FC0073C06CC050E8192E1522880F991F9527CD
:10080C00550F879550E8072E0522660F771F752721
:10081C00550F67950895689401C0E8945F93F2DFD3
:10082C00703818F07F3F08F44BC056E1571BAAF400
:10083C00519558300EF4593030F0EFEFFFEF6FEF69
:10084C007FE777F91AC077275523B9F0EE0FFF1F12
:10085C00661F771F5A95D1F710C07727583028F0AC
:10086C00EF2FF62F672F5850F9CF552331F076958F
:10087C006795F795E7955A95D1F700200AF488D03B
:10088C005F910895689401C0E8943097604070407F
:10089C00B1F0002426F0772312F4009479D0172EAF
:1008AC007EE1112032F07A95EE0FFF1F661F111CAE
:1008BC00F9CFEF2FF62F612D5F938ADF5F910895AB
:1008CC00EE27FF27662777275F910895EFEFFFEF5D
:1008DC006FE77FEF5F910895EFEFFFEF6FE77FE733
:1008EC005F9108955F9386DF703851F3903841F330
:1008FC0001240894791F23F41CF300203AF3ECCF65
:10090C000F921F932F933F934F93112722279927D1
:10091C00689FA0018F9F302D410D591F6B9F300D8B
:10092C00411D591F8E9F27D0BF9F25D06A9F23D072
:10093C00BE9F1DD0AF9F1BD0AE9F110D291F391F1D
:10094C00491F591FE32FF42F652F522F4F913F91C1
:10095C002F911F910F9066232AF0550FEE1FFF1F4A
:10096C00661F02C073954BF229DF5F910895100D3D
:10097C00211D391F02C0200D311D491F591F08951B
:10098C000024AF0DB01D0895F195E195F040089548
:10099C00F09560957095E195FF4F6F4F7F4F0895DF
:1009AC006F2F660F660B762F0895ED91FC911197C2
:1009BC0008950590F491E02D08957A936A93FA9333
:1009CC00EA9308955A934A933A932A931A930A9363
:1009DC0008955D814C813B812A811981088108959C
:00000001FF
