:080000000C9450000C94000068
:100008000C9400000C9400000C9400000C94000068
:100018000C9400000C947F000C9400000C940000D9
:100028000C9400000C9400000C948D000C940000BB
:100038000C9400000C9400000C9400000C94000038
:100048000C9400000C9400000C9400001027E803A6
:1000580064000A0001000010000110000100010006
:10006800000000002C16000074656D703D256420AA
:1000780073706565643D256420646174613D256421
:10008800202020202020200080C00A0004006600D4
:100098000200810290000000F894EE27ECBBF1E02A
:1000A800FBBFEBBFE5BF8DE0A2E0BB27ED938A95D0
:1000B800E9F780E098E0A0E6ED930197E9F7E2E937
:1000C800F0E085919591009761F0A591B591059023
:1000D8001590BF01F00105900D920197E1F7FB0122
:1000E800F0CFEFE5EDBFE8E0EEBFC0E6D2E00C945C
:1000F800C100AFB808950E948103F40131964F0101
:10010800E8EEF3E0E815F90519F488249924F1DFFD
:1001180026C00E948103EFB1E09380020C2C0D28C9
:10012800A9F4609080027724A0918002BB27E5E0C3
:10013800F0E00E94F303309741F4E1E0F0E06F0152
:10014800A2E3B0E00E94C9034FB809C0CC24DD2463
:10015800A0918002BA1619F4F20131962F01E991A3
:10016800EFBFF991E991B991A99199918991799103
:100178006991F990199009901895E0E0EABBEBBBFA
:10018800E0EBE7BBE0E0E8BBE4BBE5BBE1BBE2BB1F
:10019800E3BFE2BFECBFEFBDE9E0EEBDE0E0EDBDDF
:1001A800ECBDE7BDE6BDEFE1EBBDEFE3EABDE0E0A6
:1001B800E9BDE8BDE2BDE5BDE4BDE3BDE0E1E9BF01
:1001C800E0E0E5BFE4BFEAB9E0E8E8B9E0E0E0BFB5
:1001D800E6B9E1EDEDB9E0E0EEB9EEB1EFB1E0E09E
:1001E800E6BFA0E10E9439037894E0E0EA93A0E03A
:1001F8000E94E902E0E6F2E0FA93EA93E0E7F0E031
:10020800FA93EA93F3010E94DB030E940904F201C6
:100218000E94DB030E940904E0918002FF27662701
:1002280077270E9409048CE00E9495026096A0E658
:10023800B2E00E942803D9CFFFCFBA93AA931A93AA
:100248000A93AA81BB8112960E940104309759F142
:10025800AA81BB8114960E9401048F01309761F036
:100268000230E0E01E0798F0F80131978F01AA816B
:10027800BB811496ED93FC93AA81BB811296ED91F4
:10028800FD913196FE93EE933197AC81A083AA81BC
:10029800BB810E940104FF232AF0ED91FD91319664
:1002A800FE93EE9306C0AA81BB81EFEFFFEFED93BB
:1002B800FC931981088125960895BA93AA932697E5
:1002C8000E940E0410E0AC85BD85E0E0F0E0ED93FF
:1002D800FC93EA89FB893196EA8BFB8B3197E49191
:1002E8002E2FE03009F415C1E12FE03039F4253222
:1002F80011F411E002C00E948F030AC1E130A9F491
:10030800253219F40E948F0302C112E040E000E098
:100318002D3211F401E0FCC02B3211F44BE2F8C08D
:10032800203211F440E2F4C002C0E23039F450E067
:1003380013E0203311F40068EBC003C0E33009F088
:10034800E7C0203310F02A3308F007C0AAE05A9F0C
:10035800502DE22FE0535E0FDBC0E22FE33649F465
:100368000E949603E889F989A481AA930E949C03B4
:10037800CEC0E33741F40E9496030E94A2030E9474
:1003880068031E2F0AC0E03761F40E9496030E949A
:10039800A2030E9474031E2F086002600F7730E0EA
:1003A80034C0E43611F0E93611F4046002C0E537D0
:1003B80031F4E4E5F0E0EE83FF8315E00CC0E835A6
:1003C80011F4086003C0E83709F0A1C0EEE5F0E0D9
:1003D800EE83FF8314E002FF14C00E9496030E947C
:1003E800AC03AB85AA233AF4EA85FB850E94D703C0
:1003F800EA87FB874DE2403011F01F5F01C00B7F99
:1004080004C00E9496030E94AC0300FD11C015179A
:1004180078F407FF08C002FF04C00B7F242F115097
:1004280001C020E301C020E20E948F035150EFCFAA
:10043800312F01FF17C03030A1F003FF06C0EE8155
:10044800FF812591EE83FF8305C0AE81BF812D9189
:10045800AE83BF830E948F03503009F05150315052
:10046800EACF4BC020E3EE81FF810E940504E887B4
:10047800F987EE81FF813296EE83FF83E885F9855F
:10048800AA85BB85AE17BF0750F02F5FA885B98531
:10049800EA85FB85EA1BFB0BEA87FB87EFCF2A334C
:1004A80028F003FF02C0295F01C0295D04FD1AC0BE
:1004B800213320F4A885B985119709F409C0531789
:1004C80010F000FF01C013C020E207FF0BC020E3BB
:1004D800006102FF07C00B7F4A930E949C035030C3
:1004E80009F051500E948F03503009F0515031509B
:1004F800A885B985129708F0B5CF00FF08C050301D
:1005080031F05150E0E2EA930E949C03F8CF10E0EA
:10051800E0CEAC85BD850E9401040E941504649656
:100528000895FF92F82E26970E9410040E94B403A3
:10053800309719F4EFEFFFEF23C0DE0116960E9403
:10054800D3038D010E94B403EE83FF83E0E0E887C4
:10055800E987DE011A960E94D3030E940104FA93E8
:10056800EA931A930A93E1E2F1E0FA93EA93DE013F
:100578001A96A3DE9F01AE81BF81E0E0EC93F901FA
:100588000E9417042A96FF900895AA93E5B3EF7086
:10059800AE2FE881E07FEA2BE5BB8DE08A95F1F785
:1005A800AA9A8DE08A95F1F7AA988DE08A95F1F7D5
:1005B80089C0AA93A881E9DFE881E295E883A88148
:1005C800E4DF85E88A95F1F77DC0AA93E881F0E039
:1005D800EF57FD4FE081A981AE0FEBDFE981E09392
:1005E8008502E881E093860222960895A2E00E949F
:1005F800BB03ACE0DEDFA1E00E94BB03E0E0E093D8
:100608008602E09385020895AA93A881AA3031F062
:10061800E0918702A0918502AE1760F0E0E0EA93CE
:10062800A0918602AF5FA0938602CFDFA881AA308F
:1006380009F448C0E0918502EF5FE0938502A89A2B
:10064800A881B7DFA8983EC0BA93AA931A93A98144
:10065800BA81ED91A983BA831E2FE03019F0A12F3A
:10066800D3DFF5CF188123960895AA93E4B3E06FFA
:10067800E4BBA29AA09AA19AAA98A898A998E881F6
:10068800E0938702E058E0938302E881E054E09326
:100698008402A4E1B0E00E94C9030E94C1030E9441
:1006A800C1030E94C103A0E270DF88EC90E00197CB
:1006B800F1F7A8E27EDFA4E07CDFA5E87ADFA6E018
:1006C80078DF94DF21960895BA93AA93A991B991F6
:1006D800EE27FF276D91662311F03196FBCF089521
:1006E800BA93AA93AA27BB27E991F991059000200C
:1006F80011F01196FBCFFD0108950A921A92FA9211
:100708006A937A938A939A93AA93BA93EA93FA93F9
:10071800EFB7EA9308952A93AD85BE85EF85F889EA
:1007280009950895E889F9893497E88BF98B089534
:10073800AD85BE85EF85F88909950895A889B98999
:1007480014960E940104EE83FF83AE81BF81089551
:10075800A889B98914960E940104EA87FB8708953D
:10076800DE011C960E94D3030E94010408950E9492
:10077800DD02A3E0B0E00C94C903A0E30E94C90223
:1007880088EC90E00197F1F70895109639F080ED24
:1007980097E00197F1F7A8951197C9F708950024F4
:1007A800AF0DB01D0895F195E195F04008956F2FB4
:1007B800660F660B762F08950024112490E1AA0F86
:1007C800BB1F001C111C0E1A1F0A18F40E0E1F1E48
:1007D80001C0A1609A9599F7FD01D0010895E894A8
:1007E800B7FF04C0A095B09511966894F7FDDBDFBC
:1007F800E3DFFD010EF4D7DF0895ED91FC91119729
:1008080008950590F491E02D08957A936A93FA93E8
:10081800EA9308955A934A933A932A931A930A9318
:1008280008955D814C813B812A8119810881089551
:00000001FF
