:080000000C9456000C94000062
:100008000C9400000C9400000C9400000C94000068
:100018000C9400000C94B8000C9400000C940000A0
:100028000C949A000C9400000C94EF000C940000BF
:100038000C9400000C9400000C9400000C94000038
:100048000C9428010C9400000C9400001027E8037D
:1000580064000A0001000010000110000100000007
:10006800000000000100000016002C00733D25640C
:10007800743D256420643D25642074656D313D25FB
:10008800646D696E3D25640080C00A000400660046
:1000980001006202700001006302720002008F0218
:1000A80090000000F894EE27ECBBF1E0FBBFEBBF3B
:1000B800E5BF8DE0A2E0BB27ED938A95E9F780E0E4
:1000C80098E0A0E6ED930197E9F7E2E9F0E0859181
:1000D8009591009761F0A591B59105901590BF0194
:1000E800F00105900D920197E1F7FB01F0CFEFE5E4
:1000F800EDBFE8E0EEBFC0E6D2E00C945E01A0E000
:10010800CBD02F010E9429042F01A8ECB0E00E9457
:10011800AB04A3E0C1D03F010E9429043F01089528
:10012800F201E619F7095F01AFB808950E944C047F
:10013800A6E8B2E00E945A04A0918602B091870214
:10014800A83EE3E0BE0779F40E946004A8E8B2E0A4
:100158000E945A04A0918802B0918902159719F457
:10016800CEDF0E9466048AC00E944C04A0E6B2E07A
:100178000E945A04A0916002B0916102A83EE3E097
:10018800BE0741F5AAE8B2E00E945A04E091640271
:10019800F0916502309769F4C3DFE1E0F0E0E093A5
:1001A8006402F0936502E0E0E0938A02E0938B0238
:1001B8000CC0A0918A02B0918B02139731F4E0E051
:1001C800E0938A02E0938B02ABDFE0E0E093600209
:1001D800E093610253C00E944C04EFB1E0938E0299
:1001E800E0918C02F0918D023097B9F4E0916302AE
:1001F800A0918E02EA1781F40A2C0B2869F0E1E03D
:10020800F0E0E0938C02F0938D02AAE0B0E00E9447
:10021800AB04E0916202EFB916C0E0E0E0938C0213
:10022800E0938D02C0908E02DD24F6010E94EC0559
:100238000E941B05A0E0B0E08AE292E40E94490512
:100248000E94E204E3BD1AC00E944C04979A082C4D
:10025800092859F4E1E0F0E04F010E9460040E948F
:1002680066044DDFEBE0E3BF09C0E8E0E3BF8824A4
:1002780099240E9460040E94660441DFE991EFBF5F
:10028800F991E991B991A991999189917991699196
:10029800F990199009901895AA93E881E7B98BE12C
:1002A8008A95F1F7369A349BFECF349AE4B1F5B1CA
:1002B8000C946C02E0E0EABBEBBBE0E4E7BBE0E0F7
:1002C800E8BBE4BBE5BBE0E8E1BBE0E0E2BBE8E0BB
:1002D800E3BFE0E0E2BFECE7ECBFE0E0EFBDE9E060
:1002E800EEBDE0E0EDBDECBDE7BDE6BDEFE1EBBD89
:1002F800EFE3EABDE0E0E9BDE8BDE2BDECE6E5BD5F
:10030800E0E0E4BDE3BDE2E1E9BFE0E0E5BFE4BF72
:10031800EAB9E8E0E8B9E0E0E7B9E4E8E6B9E0E03E
:10032800E0BFE0ECEDB9E0E0EEB9EEB1EFB1E0E04E
:10033800E6BFA0E1A0D07894E0E0EA93A0E04BD03B
:10034800E6E6F2E0FA93EA93E4E7F0E0FA93EA9358
:10035800F6010E946C04F5010E946C04E0918E0283
:10036800FF27662777270E94F905F2010E946C048F
:10037800E0918A02F0918B020E946C0484E10E9451
:10038800DC036896A6E6B2E065D0A2E3B0E00E947E
:10039800AB04D2CFFFCFAA93E5B3EF70AE2FE881BD
:1003A800E07FEA2BE5BB8DE08A95F1F7AA9A8DE00C
:1003B8008A95F1F7AA988DE08A95F1F789C0AA93F2
:1003C800A881E9DFE881E295E883A881E4DF85E890
:1003D8008A95F1F77DC0AA93E881F0E0E157FD4FD7
:1003E800E081A981AE0FEBDFE981E0939302E88118
:1003F800E093940222960895A2E00E947104ACE072
:10040800DEDFA1E00E947104E0E0E0939402E09353
:1004180093020895AA93A881AA3031F0E091950239
:10042800A0919302AE1760F0E0E0EA93A0919402E5
:10043800AF5FA0939402CFDFA881AA3009F448C027
:10044800E0919302EF5FE0939302A89AA881B7DF47
:10045800A8983EC0BA93AA931A93A981BA81ED913C
:10046800A983BA831E2FE03019F0A12FD3DFF5CF6F
:10047800188123960895AA93E4B3E06FE4BBA29A87
:10048800A09AA19AAA98A898A998E881E0939502B9
:10049800E058E0939102E881E054E0939202A4E1ED
:1004A800B0E00E94AB040E9477040E9477040E9487
:1004B8007704A0E270DF88EC90E00197F1F7A8E2FA
:1004C8007EDFA4E07CDFA5E87ADFA6E078DF94DFB2
:1004D80021960895BA93AA931A930A93AA81BB8185
:1004E80012960E94F105309729F1AA81BB811496D2
:1004F8000E94F1058F01309761F00230E0E01E079D
:1005080080F0F80131978F01AA81BB811496ED9391
:10051800FC93AA81BB8112960E945A043197AC8140
:10052800A083AA81BB810E94F105FF2312F00E94DB
:100538005A0406C0AA81BB81EFEFFFEFED93FC934D
:100548001981088125960895BA93AA9326970E943F
:10055800FE0510E0AC85BD85E0E0F0E0ED93FC938E
:10056800EA89FB893196EA8BFB8B3197E4912E2F30
:10057800E03009F415C1E12FE03039F4253211F4E7
:1005880011E002C00E947F040AC1E130A9F42532BB
:1005980019F40E947F0402C112E040E000E02D320D
:1005A80011F401E0FCC02B3211F44BE2F8C0203208
:1005B80011F440E2F4C002C0E23039F450E013E034
:1005C800203311F40068EBC003C0E33009F0E7C042
:1005D800203310F02A3308F007C0AAE05A9F502DA4
:1005E800E22FE0535E0FDBC0E22FE33649F40E94AE
:1005F8008604E889F989A481AA930E948C04CEC054
:10060800E33741F40E9486040E9492040E94100479
:100618001E2F0AC0E03761F40E9486040E949204EB
:100628000E941C041E2F086002600F7730E034C05F
:10063800E43611F0E93611F4046002C0E53731F40C
:10064800E4E5F0E0EE83FF8315E00CC0E83511F433
:10065800086003C0E83709F0A1C0EEE5F0E0EE83DA
:10066800FF8314E002FF14C00E9486040E949C04C9
:10067800AB85AA233AF4EA85FB850E94E005EA8760
:10068800FB874DE2403011F01F5F01C00B7F04C0B3
:100698000E9486040E949C0400FD11C0151778F47E
:1006A80007FF08C002FF04C00B7F242F115001C0B0
:1006B80020E301C020E20E947F045150EFCF312F88
:1006C80001FF17C03030A1F003FF06C0EE81FF81A3
:1006D8002591EE83FF8305C0AE81BF812D91AE8346
:1006E800BF830E947F04503009F051503150EACF47
:1006F8004BC020E3EE81FF810E94F505E887F9876A
:10070800EE81FF813296EE83FF83E885F985AA851D
:10071800BB85AE17BF0750F02F5FA885B985EA855E
:10072800FB85EA1BFB0BEA87FB87EFCF2A3328F010
:1007380003FF02C0295F01C0295D04FD1AC02133EF
:1007480020F4A885B985119709F409C0531710F04A
:1007580000FF01C013C020E207FF0BC020E30061C7
:1007680002FF07C00B7F4A930E948C04503009F0A7
:1007780051500E947F04503009F051503150A885E3
:10078800B985129708F0B5CF00FF08C0503031F096
:100798005150E0E2EA930E948C04F8CF10E0E0CEDA
:1007A800AC85BD850E94F1050E94050664960895F2
:1007B800FF92F82E26970E9400060E94A404309704
:1007C80019F4EFEFFFEF23C0DE0116960E94DC0557
:1007D8008D010E94A404EE83FF83E0E0E887E987A7
:1007E800DE011A960E94DC050E94F105FA93EA934D
:1007F8001A930A93EEE6F2E0FA93EA93DE011A9668
:10080800A3DE9F01AE81BF81E0E0EC93F9010E9475
:1008180007062A96FF900895BA93AA93A991B991C9
:10082800EE27FF276D91662311F03196FBCF0895CF
:10083800BA93AA93AA27BB27E991F99105900020BA
:1008480011F01196FBCFFD0108950E94EC050E945E
:100858001B05A0E0B0E080EC9FE30E944905DF01A2
:10086800CB01E0E0F0EC6FE774E40E949705A0E0AC
:10087800B0E086E193E40E944905DF01CB01E0E0A6
:10088800F0E060EC7FE30E9497050E94E40408957D
:100898000A921A92FA926A937A938A939A93AA93EB
:1008A800BA93EA93FA93EFB7EA930895ED91FD911D
:1008B8003196FE93EE930895E0E0E0938602E0938C
:1008C80087020895E0E0E0938802E09389020895A2
:1008D8000E94EC050E94F90508950E94E301A3E037
:1008E800B0E00C94AB04A0E30E94CF0188EC90E048
:1008F8000197F1F708952A93AD85BE85EF85F889AC
:1009080009950895E889F9893497E88BF98B089552
:10091800AD85BE85EF85F88909950895A889B989B7
:1009280014960E94F105EE83FF83AE81BF8108957E
:10093800A889B98914960E94F105EA87FB8708956A
:10094800DE011C960E94DC050E94F10508951096B0
:1009580039F080ED97E00197F1F7A8951197C9F75D
:100968000895552342F4503811F4E0FF04C031963D
:10097800691F791F6BF050E8572711F45F9373C014
:100988005F3F31F0660F000C57956795752F0895F6
:100998005F9300200AF073C06CC050E8192E15222E
:1009A800880F991F9527550F879550E8072E052220
:1009B800660F771F7527550F67950895689401C0CE
:1009C800E8945F93F2DF703818F07F3F08F44BC06B
:1009D80056E1571BAAF4519558300EF4593030F0AF
:1009E800EFEFFFEF6FEF7FE777F91AC0772755230F
:1009F800B9F0EE0FFF1F661F771F5A95D1F710C089
:100A08007727583028F0EF2FF62F672F5850F9CF57
:100A1800552331F076956795F795E7955A95D1F76F
:100A280000200AF4CDD05F910895689401C0E8943D
:100A3800309760407040B1F0002426F0772312F41C
:100A48000094BED0172E7EE1112032F07A95EE0F79
:100A5800FF1F661F111CF9CFEF2FF62F612D5F9333
:100A68008ADF5F910895EE27FF27662777275F9132
:100A78000895EFEFFFEF6FE77FEF5F910895EFEFD6
:100A8800FFEF6FE77FE75F9108955F9386DF703828
:100A980051F3903841F301240894791F23F41CF38F
:100AA80000203AF3ECCF0F921F932F933F934F936D
:100AB800112722279927689FA0018F9F302D410D6C
:100AC800591F6B9F300D411D591F8E9F27D0BF9F07
:100AD80025D06A9F23D0BE9F1DD0AF9F1BD0AE9F4D
:100AE800110D291F391F491F591FE32FF42F652F97
:100AF800522F4F913F912F911F910F9066232AF00B
:100B0800550FEE1FFF1F661F02C073954BF229DFBA
:100B18005F910895100D211D391F02C0200D311D50
:100B2800491F591F08955F9338DF703821F4112049
:100B38000AF49FCFA4CF903809F495CF01240894E4
:100B4800970B1BF4D4F30020F3CF792F1F932F9327
:100B58003F934F93112411272227332744275527E2
:100B680090E2AE17BF078607410730F0AE1BBF0BF8
:100B7800860B410B089401C08894551F221F331F10
:100B8800111CAA1FBB1F881F441F9A9551F7F90112
:100B9800612D4F913F912F911F91662332F0550F90
:100BA800EE1FFF1F661F7A9543F2DBDE5F91089503
:100BB8000024AF0DB01D0895F195E195F04008951A
:100BC800F09560957095E195FF4F6F4F7F4F0895B1
:100BD8006F2F660F660B762F0895ED91FC91119794
:100BE80008950590F491E02D08957A936A93FA9305
:100BF800EA9308955A934A933A932A931A930A9335
:100C080008955D814C813B812A811981088108956D
:00000001FF
